:020000040008F2
:1000000098140020C97E0800E77E0800D36E08001F
:100010000B310800D33A0800074808000000000030
:10002000000000000000000000000000EB48080095
:10003000E34B080000000000BF6B08001F6F0800C2
:10004000F37608000F770800A37708007F7D08008B
:10005000A37D0800E97E0800EB7E0800ED7E080025
:10006000ED2A0800EF7E08005B6F0800AF6F080004
:10007000F17E08000B2B0800CD1D0800F71D0800BD
:10008000F37E0800F57E0800A53C0800F77E080016
:10009000F97E0800FB7E0800FD7E0800FF7E080058
:1000A000017F0800037F0800057F0800077F080024
:0C00B000097F08000B7F0800E57E0800B7
:1000BC0010B582B00024DFF8DC09DFF8DC19086029
:1000CC00DFF8D009DFF8D4190860DFF8C809DFF8C9
:1000DC00D01908600020DFF8CC190870DFF8C809C7
:1000EC00006800905FF40010DFF8C01908605FF43E
:1000FC000000DFF8BC1908605FF08070DFF8B01901
:10010C0008606421684601F0A7F80028F9D05FF474
:10011C000010DFF89C190860DFF88C09006800906B
:10012C004FF47A71684601F097F80028F8D0DFF8A0
:10013C00780900680090DFF87C090068C00709D4D2
:10014C00E4B2002C06D14FF47A71684601F084F8C1
:10015C000400F0E7E4B2002C13D100F028F800F012
:10016C00BDFCDFF8540900F080FCDFF84C19087175
:10017C00DFF8440900F02BFB4FF47A713E2000F0BD
:10018C00DEFB13BD0020C82801D2401CFBE75FF04A
:10019C008070DFF8181908600020142801D2401C68
:1001AC00FBE75FF08070DFF8081908607047F0B566
:1001BC008BB006A8DFF80419112201F07FF868460D
:1001CC00DFF8FC18182201F089F80027DFF8E408A2
:1001DC000068C00740F10C81DFF8E80800680600F1
:1001EC000020DFF8E4180860DFF8E0080068C000C1
:1001FC0009D5DFF8D808006830F08050DFF8CC184B
:10020C000860761E15E0FFF7BDFFDFF8A808006850
:10021C0040070ED4DFF8B008006842F21071884233
:10022C0007D2DFF8A4080068401CDFF89C180860AF
:10023C00EBE7DFF89408006842F21171884205D3AD
:10024C0000F0D8F806A801F075F8D1E0DFF86408E2
:10025C00006830F00400DFF85C180860DFF83C0838
:10026C0000680078A42840F08780DFF860080068F8
:10027C0050F08060DFF854180860FFF783FFDFF858
:10028C0034080068C0070ED5DFF83C08006842F25D
:10029C001071884207D2DFF830080068401CDFF884
:1002AC0028180860EBE7DFF82408006830F080605D
:1002BC00DFF818180860DFF8FC07006830F004005D
:1002CC00DFF8F0170860DFF80008006842F21071E0
:1002DC00884247D2DFF8EC070068861BDFF8BC07C2
:1002EC0000680078040000F09BF8DFF8B0070068A5
:1002FC000078801C0500EDB2A81C864207D0DFF800
:10030C00CC07006850F00100DFF8C0170860DFF878
:10031C008C0700680078444000F082F86D1EEDB246
:10032C00002DF4D12000DFF8741709680978C0B2E9
:10033C0088420ED1DFF86C070078401CDFF8641798
:10034C000870DFF88C070068401CDFF88417086021
:10035C001BE0DFF848070068DFF84417086000F07E
:10036C0073F812E0DFF86C070068401CDFF86417C4
:10037C0008600120070008E0DFF85C070068401CFB
:10038C00DFF85417086001200700FFB2002F2DD0B2
:10039C00684600F0CFFFDFF81C070068C00710D5D7
:1003AC00DFF82407006842F21071884209D2DFF8A6
:1003BC0018070068401CDFF810170860FFF7E2FE12
:1003CC00E9E7DFF8D4060068DFF8D0160860DFF83C
:1003DC00C8060068DFF8C8160860DFF8D8060068A1
:1003EC0030F00600DFF8CC16086001E000F018F8D9
:1003FC000BB0F0BD72B6DFF89C06DFF89C160860F7
:10040C00DFF89006DFF894160860DFF88806DFF84E
:10041C00901608600020DFF88C16087062B67047E2
:10042C00DFF878060068401CDFF870160860DFF80B
:10043C006C060068DFF89C1A884204D1DFF8540679
:10044C00DFF8581608607047DFF854060068401C47
:10045C00DFF84C160860DFF848060068DFF8741AFD
:10046C00884204D1DFF82C06DFF834160860704798
:10047C002DE9F84F04000D0000265FF0000B4FF63D
:10048C00FF7AFF208DF80200FF275FF0FF384FF650
:10049C00FF7920788DF80000A0788DF803009DF886
:1004AC000000092803D100208DF8010058E09DF8C8
:1004BC000000122803DA9DF80000092807DADFF89B
:1004CC00340C00F037FF00208DF8010048E0E07A92
:1004DC00060001208DF80100300621D55FFA8BFB58
:1004EC0004EB0B00007B82461BF1010B5FFA8BFBCC
:1004FC0004EB0B00007B5AEA002A1BF1010B5FFA9C
:10050C008BFB04EB0B00007B8DF802001BF1010B45
:10051C005FFA8BFB04EB0B00007B07001BF1010B5C
:10052C0070060CD51BF1010B5FFA8BFB04EB0B0077
:10053C0090F90C0080461BF1010B1BF1010BB0066E
:10054C000ED55FFA8BFB04EB0B00007B81461BF195
:10055C00010B5FFA8BFB04EB0B00007B59EA0029C3
:10056C006E709DF803002870A5F802A09DF802009B
:10057C0028716F7185F806809DF80100BDE8F28F37
:10058C0038B5DFF8C8090068C00109D5DFF8880A5A
:10059C0000F0D0FEDFF8AC0ADFF85C1B08600FE15E
:1005AC005FF40010DFF8741A0860DFF89C0A00F0A2
:1005BC00C1FE0020DFF8441B08600020DFF8D01BD0
:1005CC0008600020C0B208287CDADFF8341BC0B207
:1005DC00142202FB00F28854FF21DFF8242BC0B256
:1005EC00142303FB00F31A445170FF21DFF8102B86
:1005FC00C0B2142303FB00F31A449170FF21DFF8FF
:10060C00002BC0B2142303FB00F31A44D172FF2158
:10061C00DFF8EC2AC0B2142303FB00F31A44117365
:10062C00FF21DFF8DC2AC0B2142303FB00F31A44C9
:10063C005173FF21DFF8C82AC0B2142303FB00F367
:10064C001A449173FF21DFF8B82AC0B2142303FBBC
:10065C0000F31A44D173FF21DFF8A42AC0B214238B
:10066C0003FB00F31A441174FF21DFF8942AC0B283
:10067C00142303FB00F31A445174FF21DFF8802A82
:10068C00C0B2142303FB00F31A4491740021DFF869
:10069C00702AC0B2142303FB00F31A44D174002156
:1006AC00C9B208290CDADFF8582AC0B2142303FBAC
:1006BC0000F31A44C9B20A440023D370491CEFE773
:1006CC00401C7FE70420DFF83C1A0870DFF8380A7A
:1006DC00DFF8301A48605FF48000DFF8281A886071
:1006EC000120DFF8201A08730320DFF8181A48736A
:1006FC000FF22530DFF80C1A08610FF23530DFF8F5
:10070C00041A4861DFF88C03DFF8F8198861DFF808
:10071C008803DFF8F019C8614FF48070DFF8E41932
:10072C000884DFF8E00901F0EFF9DFF8681A0860D7
:10073C000020DFF880130860FFF7BAFCDFF8580AD6
:10074C000078C0061BD5DFF8540A00F0F3FDDFF883
:10075C00BC0900F0EFFDDFF8480A00F0EBFD00F0FB
:10076C00FBFDDFF86803006830F48030DFF85C13C1
:10077C000860DFF89C09DFF88019086020E0DFF8DA
:10078C00940900F0D7FD5FF0307004005FF0F0705A
:10079C000500DFF8100A0460DFF80C0A0460DFF8CB
:1007AC000C0A0560DFF860090560DFF8040A0460D4
:1007BC00DFF8000A0560DFF88C08DFF83C190860E8
:1007CC0031BD80B5DFF830090068804701BDF0B558
:1007DC0099B00400DFF8E009076810A8DFF8DC190D
:1007EC00212200F06BFD0AA8DFF8D419152200F0C5
:1007FC0065FD05A8DFF8CC19122200F05FFD6846F4
:10080C00DFF8C419112200F059FDDFF8C0020068AE
:10081C0010F0406F04D010A800F08CFD00208CE08C
:10082C000020DFF8A41208605FF40000DFF87C12EF
:10083C000860DFF880020068C0070ED4DFF8880279
:10084C00006842F21071884207D2DFF87C0200681F
:10085C00401CDFF874120860EBE7DFF86C020068EC
:10086C0042F21171884208D35FF40000904908608D
:10087C000AA800F05FFD00205FE0FFF783FC8D48C5
:10088C00006840070BD49048006842F2107188420F
:10089C0005D28D480068401C8B490860EFE75FF477
:1008AC000000834908608848006842F21171884250
:1008BC0004D30AA800F03EFD00203EE07748006813
:1008CC0000780500EDB2A42D07D18048006850F0E7
:1008DC0080507E49086000202FE0FFF7A1FDFFF754
:1008EC00B3FD7448006830F0040072490860EDB242
:1008FC00A52D1ED17548006850F000607349086042
:10090C002078C01C060022003100DFF8880800683F
:10091C0001F09EF9DFF8B4180860DFF8B008006841
:10092C00002801D0012008E005A800F003FD0020FC
:10093C0003E0684600F0FEFC002019B0F0BDF0B5F5
:10094C0089B004000D0000260127DFF86C08006850
:10095C00009001A8DFF878181A2200F0AFFC52487A
:10096C000068009053480068C00709D5F6B2002E05
:10097C0006D14FF47A71684600F06EFC0600F1E780
:10098C00F6B2002E1CD15148006830F000604F497F
:10099C00086000F045FB0020DFF830180860424882
:1009AC000068009043480068C00709D4F6B2002ED6
:1009BC0006D14FF47A71684600F04EFC0600F1E760
:1009CC00F6B2002E1BD1FFF7F2FB36480078002858
:1009DC0015D0DFF800080068807840280FD1DFF8C8
:1009EC00F407006800792100C9B2884207D1DFF80A
:1009FC00E40700684079002801D10020070000F0CE
:100A0C006DF8F6B2002E02D001A800F093FC38006D
:100A1C00C0B209B0F0BD000080B5DFF8BC070068BB
:100A2C00401CDFF8B4170860FFF7ACFB01BD0000F9
:100A3C0080B524480068401C2249086016480068AC
:100A4C00401C1549086014480068DFF88814884277
:100A5C0003D1DFF8840410490860DFF880070068D0
:100A6C00400101D5FFF78EFB01BD30B401000878C1
:100A7C00821CA52000231C001500E4B2EDB2AC4290
:100A8C0004D20C786040491C5B1CF4E7C0B230BC4B
:100A9C007047000098240020D42D0020D82D002071
:100AAC00DC2D0020082F00206C2E0020340E0E4070
:100ABC00300E0E40982E00200C010020007E080005
:100ACC00B87D0800C02D0020B42D0020A42D0020DE
:100ADC00EC2D0020C42D0020C82D002070B588B04E
:100AEC00DFF800070078002801D10120F0E1DFF8E1
:100AFC00F8060068401CDFF8F0160860DFF8E40622
:100B0C000078401EDFF8DC160870FFF79DFCDFF85C
:100B1C00C406006800780400E4B2122C01DB01204A
:100B2C00D6E10026F6B2E4B2E01C86420ADADFF81F
:100B3C00A406006800786946F6B28855FFF784FC75
:100B4C00761CEFE79DF8020005009DF801003E2899
:100B5C0000F09C8140280CD04E2800F07F814F285B
:100B6C0000F07C81522800F090816F2800F0A28167
:100B7C00A7E19DF80300012800F0E380DFF86C0684
:100B8C0005709DF80300DFF8641648709DF80400AA
:100B9C00DFF8581688709DF8030041286AD0422867
:100BAC005DD04B2808D04C2838D05B2840F083808F
:100BBC00DFF83C0600F0BEFB15F13000DFF8341610
:100BCC000873DFF8300600F0B5FB9DF80400002830
:100BDC0023D1DFF82C05EDB2142101FB05F10844FB
:100BEC00C07C50F00400DFF81815EDB2142202FBA3
:100BFC0005F21144C874DFF80805EDB2142101FBAD
:100C0C0005F10844C07C10F0FD00DFF8F414EDB2DF
:100C1C00142202FB05F21144C8747CE09DF802001A
:100C2C003030DFF8D4150873DFF8CC0500F082FB08
:100C3C009DF80400002811D1DFF8C404EDB2142192
:100C4C0001FB05F10844C07C10F0F300DFF8B01490
:100C5C00EDB2142202FB05F21144C8745BE09DF85E
:100C6C0002003030DFF894150873DFF8900500F0BF
:100C7C0061FB50E09DF802003030DFF884150873FA
:100C8C00DFF87C0500F056FB9DF80400002811D11C
:100C9C00DFF86C04EDB2142101FB05F10844C07CB3
:100CAC0010F0F100DFF85814EDB2142202FB05F23B
:100CBC001144C8742FE09DF802003030DFF8441561
:100CCC0008739DF80300C0B2000900F0E1FADFF8E8
:100CDC00341508769DF8030010F00F0000F0D8FAD8
:100CEC00DFF8201548769DF80400C0B2000900F02A
:100CFC00CFFADFF8101581F824009DF8040010F0ED
:100D0C000F0000F0C5FADFF8FC1481F82500DFF8BD
:100D1C00F40400F00FFB9DF80400002804D1DFF868
:100D2C007C0400F007FB98E0DFF8DC0400F002FB29
:100D3C00DFF8A804006850F00200DFF8A014086087
:100D4C008BE09DF8040000280ED001285CD002280E
:100D5C000ED0032833D005283ED0062850D00728C3
:100D6C0056D0082827D068E0002000F0B7F874E0CF
:100D7C00DFF898040078401CDFF890140870DFF856
:100D8C008C040078002812D1DFF884040078401C11
:100D9C00DFF87C140870DFF878040078002806D19E
:100DAC00DFF870040078401CDFF86814087068469F
:100DBC0000F094F851E0684600F090F84DE0D0480F
:100DCC00EDB2142101FB05F108444078102802D142
:100DDC00684600F083F840E0C948EDB2142101FBED
:100DEC0005F10844C07C50F01000C549EDB2142246
:100DFC0002FB05F21144C874684600F06FF82CE051
:100E0C00684600F06BF828E0684600F067F824E0CC
:100E1C00DFF8040400F08EFAB948EDB2142101FB9E
:100E2C0005F10844C07C10F0F300B549EDB2142272
:100E3C0002FB05F21144C8740FE09DF8040000F0A9
:100E4C0099FADFF8D80300F075FADFF89003006820
:100E5C0050F00400DFF88413086038E005A96846F8
:100E6C00FFF706FB05AA0DF10301012000F070F855
:100E7C00A348EDB2142101FB05F108444078002889
:100E8C0002D1002000F02AF821E020E00020C0B2BE
:100E9C000A2808DA6946C0B201448978C04AC0B24F
:100EAC001154401CF3E7BC48006850F01000BA49DC
:100EBC0008600CE0C948006850F48030C7490860ED
:100ECC0005E0C648006850F00800C44908600020DE
:100EDC0008B070BD98250020982400201FB5040090
:100EEC00FF208DF80000A0788DF80100E0788DF8D7
:100EFC00020020798DF80300FF208DF80400C5480E
:100F0C0000788DF80500C24800788DF80600BF48BF
:100F1C0000788DF807009DF801008DF80800FF207F
:100F2C00ADF80A00FF208DF80C00FF208DF80D00A5
:100F3C005FF0FF308DF80E00FF208DF8090002AA3B
:100F4C006946022000F004F81FBD0000542E00205A
:100F5C002DE9F0438BB004000D0016005FF0000982
:100F6C006846AF492B2200F0A9F91C2001F050FA79
:100F7C000700002F04D1684600F0DCF9002048E09F
:100F8C000020C0B2082807DAC0B2295CC0B207EB57
:100F9C0000029171401CF4E7A248006838603C7173
:100FAC003078B873708838823079B8747079F87486
:100FBC007078F873B07938750020B8614F480068C4
:100FCC00002807D14D48076085480068401C8449BB
:100FDC0008601DE0494800688046D8F818000028D1
:100FEC0004D0D8F8188019F10109F6E75FFA89F9ED
:100FFC00B9F1200F07D2C8F8187079480068401C66
:10100C007749086004E0684600F094F9002000E09D
:10101C0001200BB0BDE8F083CC000020100E0E4078
:10102C0010B55B48006800280AD0594800680400D5
:10103C0057480068806956490860200001F040FA62
:10104C0010BD0000591208009400002070B5012456
:10105C0000256248006800041CD0734800F06AF94F
:10106C000026F6B2042E0FDA5C480068204207D046
:10107C006E48EDB2142101FB05F1084400F05AF959
:10108C0064006D1C761CECE754480068000C0004EE
:10109C0052490860FFF722FD65480068C00704D577
:1010AC000FF239001449086016E04848006800281F
:1010BC0012D13748006800280ED035480068001D52
:1010CC00FFF785FB002807D056480068594908608F
:1010DC000FF245000849086070BD000080B5564805
:1010EC000068401C54490860FFF761F80848024941
:1010FC00086001BD1C7A0800B02D0020AC2D00202A
:10110C0098270020802B0020000E0E40787E0800CF
:10111C0059100800AC00002010B52C48006801F0F4
:10112C000FFA0400E4B22000001F01282ED8FFF7AC
:10113C0077FF0020254908602848006830F00060DF
:10114C00264908603A480068C0070BD53948006842
:10115C0042F21071884205D236480068401C35496D
:10116C000860EFE73548006842F21171884209D3F4
:10117C00334800F0DFF82E480068C00702D5FFF7AF
:10118C0001F8F8E72F4830490860FFE710BD000070
:10119C00E42D0020D02D0020582E0020000000202F
:1011AC00702D0020040C0E40000C0E40040E0E405E
:1011BC00140C0E40140E0E40702E0020407A0800C5
:1011CC00D07D0800147E0800287E0800CC2D00205D
:1011DC004C7C0800DC2D0020BC2D0020A42D002010
:1011EC00E02D0020082F0020F02D0020A82D00203D
:1011FC00987E08008000002068000020100000206D
:10120C002800002040000020080000200B2F0020A8
:10121C000A2F0020092F00203C7E0800EC7B0800E0
:10122C009C7908006C2E0020140100202401002061
:10123C00982E0020B82D0020E82D0020B42D002081
:10124C007401002059100800B02D0020704702686E
:10125C00531C03601170704710B4020016480068EC
:10126C001468A04205D3144800681468001B0300DE
:10127C0007E05FF0FF301468001B0F4C2468201847
:10128C0003008B4201D2002000E0012010BC70470B
:10129C000100FF20C9B20A2903DA11F13002100053
:1012AC0008E0C9B20A2905DBC9B2102902DA11F12A
:1012BC0057021000C0B270476C2E002062B38B072F
:1012CC0008D0521E11F8013B00F8013B00F02480BD
:1012DC008B07F6D1830740F0208000BF103A07D36C
:1012EC0030B4B1E83810103AA0E83810F9D230BC5C
:1012FC00530724BFB1E80810A0E8081044BF51F808
:10130C00043B40F8043BD20724BF31F8022B20F8F1
:10131C00022B44BF0B7803707047083A07D3B1E82F
:10132C000810083A40F8043B40F804CBF7D25307B6
:10133C00E4E70A0D70B50400250000262878002883
:10134C0002D0761C6D1CF9E722003100DFF8F406A0
:10135C00006801F011FB70BD80B5DFF8EC06008869
:10136C00ADF800006A460221DFF8D806006801F0EB
:10137C0003FB01BD2DE9FE43040000250026DFF828
:10138C00CC860020C0B20A2819DAB4FBF8F130314F
:10139C006A46C0B211546946C0B2095C302901D00A
:1013AC0001210D00EDB2002D00D0761CB4FBF8F13C
:1013BC0008FB11440A21B8FBF1F8401CE2E7EDB23E
:1013CC00002D01D101200600F6B2300001F020F80A
:1013DC008146B9F1000F08D10220DFF874160870AD
:1013EC000FF22D60DFF86C16086009200700300042
:1013FC00C0B2002809D06946C95DC0B209EB000231
:10140C0002F8011C7F1E401EF2E74A46F6B231007C
:10141C00DFF83006006801F0AFFA484601F050F8EA
:10142C00BDE8F78370B5ACB06846DFF8381611220A
:10143C00FFF744FF19A8DFF830164822FFF74EFFDC
:10144C000124012505A8DFF824165022FFF746FFDA
:10145C0019A8FFF76FFF0026F6B2082E13DADFF893
:10146C001006006804420BD10020050005A8F6B256
:10147C000A2101FB06F10844FFF75CFFFFF76CFF44
:10148C006400761CE8E7EDB2002D02D06846FFF749
:10149C0051FFFFF761FF2CB070BD00B585B0002087
:1014AC0080B2802806D20021DFF8C82580B2115402
:1014BC00401CF5E70020DFF8A01508700020C0B232
:1014CC00802806DA0021DFF89425C0B21154401CA4
:1014DC00F5E7DFF8A005DFF8A0150860DFF8940544
:1014EC00DFF898150860DFF89805DFF898150860A4
:1014FC0002208DF80000DFF87C050190DFF87C05F8
:10150C0002908020ADF802000FF25900039068465B
:10151C0001F07EF9DFF82C150860DFF8280500686B
:10152C00002805D10FF2E940DFF82815086010E01B
:10153C00DFF85405FFF7FEFEDFF83405006850F0C5
:10154C000400DFF82C1508600FF2A120DFF8041559
:10155C00086005B000BD80B5DFF8F804006880476E
:10156C0001BD0000DFF814050068401CDFF80C1505
:10157C000860DFF808050068DFF81015884204D110
:10158C00DFF8F004DFF8F4140860704710B592B07F
:10159C000AA8DFF8FC141922FFF790FE3A208DF808
:1015AC00020020208DF803000A208DF824000D2065
:1015BC008DF8250000208DF826000AA8FFF7BAFE4A
:1015CC000024E4B2082C2CDAE4B20A2C07DBE4B2D7
:1015DC000A2094FBF0F030308DF8000002E030204F
:1015EC008DF80000E4B20A2094FBF0F100FB1140EE
:1015FC0030308DF801000020C0B220280CDADFF862
:10160C009414E4B251F83410C0B2095C6A46C0B20A
:10161C0002441171401CEFE76846FFF78BFE641C17
:10162C00CFE7FFF799FE12B010BD10B584B0684635
:10163C00DFF864141CC91CC00C390C386846FFF761
:10164C0079FE1FBD10B584B06846DFF850141CC974
:10165C001CC00C390C386846FFF76CFEDFF8000430
:10166C000078C0070CD5DFF8F8030068400840008C
:10167C00DFF8EC130860DFF82804FFF75BFE2FE0BF
:10168C00DFF8DC03006850F00100DFF8D4130860C9
:10169C00DFF81004FFF74EFE082001F05FFB092075
:1016AC0001F05CFB0A2001F059FB0B2001F056FB0A
:1016BC00002001F053FB012001F050FB022001F04F
:1016CC004DFB032001F04AFB042001F047FB0520F1
:1016DC0001F044FB062001F041FB072001F03EFB2A
:1016EC001FBD10B50400E4B2422C0BD1082001F050
:1016FC0097FB092001F094FB0A2001F091FB0B20D1
:10170C0001F08EFBE4B2522C0BD1002001F088FBCF
:10171C00012001F085FB022001F082FB032001F087
:10172C007FFBE4B2472C0BD1042001F079FB0520A0
:10173C0001F076FB062001F073FB072001F070FB33
:10174C0010BD00B589B06846DFF85C132322FFF7A3
:10175C00B5FD6846FFF7EEFDDFF80403007880075F
:10176C000BD5DFF8FC02006830F00200BC490860C1
:10177C00DFF82C03FFF7DEFD09E0B948006850F0F4
:10178C000200B7490860DFF81C03FFF7D3FD09B06E
:10179C0000BD00B593B00BA8DFF810131B22FFF7A8
:1017AC008DFD6846DFF808132922FFF787FD0BA88B
:1017BC00FFF7C0FDAA480068C00309D5A848006817
:1017CC0030F48030A6490860B548FFF7B3FD0BE054
:1017DC00A348006850F48030A1490860B148FFF775
:1017EC00A9FD6846FFF7A6FD13B000BD38B500246F
:1017FC00A1480068A1490968884200F09A80E4B2C7
:10180C00002C40F096809C48006800780500EDB2F2
:10181C002800082802D00D2833D03CE090480078EE
:10182C0040070DD58C480078802826DA8B488A49E9
:10183C000978455488480078401C874908701CE09A
:10184C0085480078002809D083480078401E8249DA
:10185C00087000208149804A1278885489480068B1
:10186C008749884209D087480068401E854908602E
:10187C0090480088401E8F4908808F48FFF75AFD1A
:10188C0040E077480078400705D4012004000FF2AF
:10189C00B5007049086070480078802808DA6F48F5
:1018AC006D49097845546C480078401C6A490870A9
:1018BC002900C9B26348006801F046F8684800780E
:1018CC0040071FD46F48006805706E480068401CC4
:1018DC006C49086077480088401C76490880694844
:1018EC000068764988420DD3EDB20D2D0AD06448BC
:1018FC006449086000206F4908807148FFF71AFDA1
:10190C007049086056480078C00703D52800C0B25B
:10191C00FFF7E7FE58480068401C574908605648D6
:10192C0000685A498842FFF463AF52485249086034
:10193C005EE764480068002803D06248006800F045
:10194C00FFFD31BD70B50124002005004C48EDB2FF
:10195C00405D5D49EDB2495D884201D00020040034
:10196C006D1CE4B2002C02D0EDB2042DEEDBE4B21F
:10197C00002C2ED0002004004148EDB240573038E6
:10198C0006006D1C76B2002E23D476B20A2E20DA15
:10199C000A2000FB06F04D4908703948EDB240575B
:1019AC00303806006D1C76B2002E12D476B20A2E98
:1019BC000FDA4648007830184449087043480078DC
:1019CC00082806DA2E48EDB2405D0D2801D1012021
:1019DC000400E4B2002C04D00FF21D001D49086075
:1019EC0005E03B48FFF7A6FC3A481A490860244832
:1019FC002449086070BD000080B536481549086060
:101A0C0024483249097800EBC1004068804701BD89
:101A1C0080B51348006850F00040114908602E480A
:101A2C00FFF788FC0A480078FFF7A4FCFFF794FC4A
:101A3C0000202049088012481249086025480549B1
:101A4C00086001BD102E00203E13080000CA9A3B0E
:101A5C00102F00200C2E00200F2F0020C828002053
:101A6C00082E0020647E0800DC7808008C780800C2
:101A7C00582E0020482900201C2E0020182E002053
:101A8C00482A0020202E0020FC010020C82900201C
:101A9C00687C0800BC010020B07E0800BC7E0800F9
:101AAC00F8030020F0030020A87B0800847C0800C9
:101ABC00C8790800042F002040020020882A00204A
:101ACC0044020020142E002064020020112F00205C
:101ADC006C020020F917080080020020012110F090
:101AEC001F029140DFF8B42840B2430942F823109A
:101AFC007047012110F01F029140DFF8A42840B27A
:101B0C00430942F8231070472DE9F0470400207870
:101B1C00022804D034D3042821D010D330E0DFF8CD
:101B2C008408050050200600DFF87C080700082018
:101B3C0080467FF0080081461A20824622E0DFF8BA
:101B4C006C08050060200600DFF864080700002020
:101B5C0080465FF0FF3081463020824612E0DFF88D
:101B6C005408050050200600DFF84C0807005FF40D
:101B7C00002080467FF4002081460020824601E050
:101B8C00002063E02869C00201D500205EE0DFF888
:101B9C002C080068012195F9282091400843DFF8B2
:101BAC001C18086060686860A068A860207B2873B7
:101BBC00607B6873206968616069A861A069E861ED
:101BCC00E0692862208CA884286950F48010286170
:101BDC0028680660286847602868C0F8088028686C
:101BEC00C0F80C902868C0F820A0687B02281BD194
:101BFC00A0692968C1F80001A069401C2968C1F8D6
:101C0C00100101202968C1F8040101202968C1F8DC
:101C1C0014010020286240F201102968C1F820014B
:101C2C005FF4002029688860687B032803D1DFF803
:101C3C0090072968886095F9280040B2FFF759FF92
:101C4C0095F9280040B2FFF749FF2800BDE8F0875E
:101C5C00F8B504000D0016003200290014F12C0018
:101C6C0000F08AFC0700002F01D1002007E0DFF80C
:101C7C0058070068002801D500F07EF83800F2BD46
:101C8C0080B5DFF84807DFF81C1708600020DFF884
:101C9C00141748600020DFF80C17C8620020DFF82A
:101CAC000417C8610020DFF8FC1688840020DFF8D8
:101CBC00F41608620020DFF8EC1608610D20DFF83E
:101CCC00E41681F82800DFF80807DFF8E016086052
:101CDC000020DFF8D81648600020DFF8D016C86264
:101CEC000020DFF8C816C8610020DFF8C016888411
:101CFC000020DFF8B81608620020DFF8B016086183
:101D0C000E20DFF8A81681F82800DFF8C806DFF8E7
:101D1C00A41608600020DFF89C1648600020DFF84D
:101D2C009416C8620020DFF88C16C8610020DFF81A
:101D3C00841688840020DFF87C1608620020DFF807
:101D4C00741608610F20DFF86C1681F82800DFF894
:101D5C005406DFF8841608600FF25140DFF8641661
:101D6C000860DFF87806FFF7E5FA01BD80B5DFF80B
:101D7C0054060068804701BD80B5DFF86406006832
:101D8C0050F00100DFF858160860DFF81806DFF88D
:101D9C0048160860DFF848060078C0070FD5DFF852
:101DAC00240600688047DFF83C060068DFF8381628
:101DBC0008600121DFF83006FFF74EFAEAE701BDB3
:101DCC0080B5DFF8E805DFF824160860DFF8240694
:101DDC00DFF81C160860DFF820060068401CDFF8EE
:101DEC001816086000F016F801BD80B5DFF8C405C0
:101DFC00DFF8F8150860DFF80406DFF8F415086062
:101E0C00DFF8FC050068401CDFF8F415086000F0F2
:101E1C0001F801BD70B5DFF8D405006800684069B1
:101E2C000600DFF8C805006800680069000338D5B3
:101E3C00300336D5DFF8B40500684068C06BDFF8B6
:101E4C00AC1509688968084214D1DFF8A40500684C
:101E5C00006850F00100DFF8981509680860DFF899
:101E6C0090050068006830F00600DFF884150968FA
:101E7C00086016E0DFF8780500680068400840004C
:101E8C00DFF86C1509680860DFF860050068407BB6
:101E9C00022806D10120DFF8541509680968C1F839
:101EAC000401DFF84805006800680069800570D5FA
:101EBC00B0056ED5DFF834050068006B401EDFF806
:101ECC002C1509680863DFF8240500680068806930
:101EDC000400DFF818050068006B002825D0DFF837
:101EEC000C050068406B401CDFF80015096848635E
:101EFC00DFF8F8040068406B00780400DFF8EC04AD
:101F0C000068007B012803D194FAA4F0000E0400B1
:101F1C002000C0B2DFF8D41409680968C861DFF882
:101F2C00CC0400684069804733E04FF40070DFF860
:101F3C00BC1409680968C860DFF8B004006800695F
:101F4C0030F40010DFF8A414096808610421DFF8EC
:101F5C009C040068C06A006800F0F7FBDFF88C0492
:101F6C0000682C3000F086FB0120DFF88014096833
:101F7C0009688860DFF878040068006850F0020097
:101F8C00DFF86C1409680860DFF8600400684069C9
:101F9C008047DFF85804006800680069C00738D52E
:101FAC00DFF84804006800684069C00731D5DFF8E5
:101FBC003C0400680068806900F0FF000400DFF852
:101FCC002C040068007B012803D194FAA4F0000EC5
:101FDC0004002000C0B2FF2806D1DFF828040068F6
:101FEC00401CDFF820140860DFF800040068006A69
:101FFC0000680470DFF8F8030068006850F0040013
:10200C00DFF8EC1309680860DFF8E003006880690A
:10201C008047DFF8D80300680068006900077DD5A9
:10202C0030077BD5DFF8C4030068407B002805D05F
:10203C00DFF8B8030068407B01283DD10020DFF8B1
:10204C00AC130968C884DFF8A4030068006930F495
:10205C008000DFF8981309680861DFF890030068C6
:10206C00006950F40000DFF8841309680861DFF898
:10207C0098030068401CDFF890130860DFF85803E1
:10208C000068407B002808D1DFF860030068806896
:10209C00DFF8581309684968086340F20220DFF83A
:1020AC004C1309680968C1F820010820DFF83C13BB
:1020BC0009680968C86031E0DFF83403006800681B
:1020CC0050F00400DFF8281309680860DFF81C03DF
:1020DC0000680068D0F81001401CC4490968096800
:1020EC00C1F81001C14800680068D0F80001BF4970
:1020FC000968C969BD4A1268928C1144884207D19B
:10210C00BA480068C069B94909680968C1F8000192
:10211C000120B64909680968C1F81401B348006880
:10212C0000680069C0063ED5F0063CD50421AF48D6
:10213C000068C06A006800F008FBAC4800682C30EE
:10214C0000F098FAA9480068006930F40010A7491B
:10215C00096808614FF40070A44909680968C1F85E
:10216C0020011020A14909680968C86000200500F9
:10217C009E48006800684069800503D4642D01D234
:10218C006D1CF5E799480068407B00280BD19248FC
:10219C000068407B002806D1944800688068934909
:1021AC0009684968086370BD00000000F8B58A48EA
:1021BC000068C06A002805D187480068C08C0028D8
:1021CC0000F0C78084480068006910F4C00F40F02C
:1021DC00C08081480068407B002806D17E4800689A
:1021EC0080687D490968496848637B480068C08CF1
:1021FC00002840D078480068006950F48000764987
:10220C000968086174480068858C0026724800686B
:10221C00C76932002900380000F03EFF6E480068A4
:10222C00C0696D4909680968C1F800016A4800680D
:10223C00C069694909680968C1F8080166480068FD
:10224C00C08C654909680968C1F8040162480068D6
:10225C00C08C614909680968C1F80C0108205E4905
:10226C0009680968886040F201105B4909680968CF
:10227C00C1F820016DE0022157480068C06A00686F
:10228C0000F063FA54480068006950F40010524999
:10229C000968086150480068407B03283BD14E48D0
:1022AC000068C06A40684C49096808634A4800687D
:1022BC00C06A083048490968486347480068406B61
:1022CC000078040044480068007B012803D194FA8C
:1022DC00A4F0000E040008203F4909680968086052
:1022EC0040203D490968096808602000C0B23A499D
:1022FC0009680968C8610120374909680968C8601C
:10230C004FF40070344909680968886032480068E5
:10231C00406980471DE030480068C06A08302E498B
:10232C0009680968C1F808012B480068C06A406850
:10233C00294909680968C1F80C0110202649096867
:10234C00096888604FF48070234909680968C1F8EE
:10235C0020012148006890F828000D2804D015D3DE
:10236C000F2809D004D311E010481B49086013E072
:10237C001048194908600FE00A48174908601848C6
:10238C000068400840001649086005E01F48FEF749
:10239C00D1FF044810490860F1BD000000E100E0E5
:1023AC0080E200E0882A0020C0084000C02A0020FB
:1023BC00CE184500F82A0020FF18410010040E40EA
:1023CC00010008009C2E0020542E00200000094023
:1023DC000040094000800940A82E0020C0030020C6
:1023EC00A42E00206C2E0020A02E0020AC2E00204D
:1023FC00B02E0020942E0020B42E0020982E002009
:10240C00B82E0020BC2E0020C02E0020D8030020A7
:10241C0070B5054605F10F00C408C046C046E4007F
:10242C00A54232D2082C04D2082402E0083000F075
:10243C0047F82248026811000CD1011D0A6802B34A
:10244C001368A34238BF111DF8D310E01D68A542D4
:10245C000DD2191D0B68002BF8D11268011D00E07C
:10246C00191D0B6893420CD01D68A542F8D361B1BD
:10247C000D682A68A2F10803A3420AD26A680A60AE
:10248C000FE000F03DFE0028D0D1C046C046002031
:10249C0070BD2B190B60121B6E685E600B681A60A6
:1024AC002C60096800291DBF4A68002A091D0021FB
:1024BC000160C046C04605F1080070BD9C2D00208F
:1024CC0000B9704738B5A0F108042068082833D348
:1024DC0010F0070F30D1C046C0461848416809B10A
:1024EC008C4203D26160446017E019464B680BB113
:1024FC00A342FAD30B68CD18AC421BD3A54204D12E
:10250C002268D2180A600C4607E04A681AB12368A0
:10251C0023449A420ED362604C60616851B12268C8
:10252C00A3188B4206D10023036008688018206032
:10253C0048686060C046C04631BD00009C2D00203C
:10254C000100FF209C4A13688B4204D09B4B9A429B
:10255C0001D00C32F7E7994B9A420BD01379180043
:10256C00C0B2042802D0C0B2052803D100231360E6
:10257C0000231371C0B270472DE9F84F04000D0011
:10258C001600AB465FF000098D480078102807D183
:10259C008C48006850F001008A490860002067E010
:1025AC00BBF1000F63D086480078401C844908704A
:1025BC00834800780E2806DB8248006850F0020041
:1025CC008049086005E07F48006830F002007D49D2
:1025DC0008607D4882469AF80000002802D11AF162
:1025EC00900AF8E700208AF800001AF104000700AE
:1025FC00BBF1810F04D380208146BBF1800B02E03C
:10260C00D94600208346714800683860C7F80490AA
:10261C000020C7F8880000207968884206D23178FB
:10262C0007EB00021172761C401CF5E720680028AD
:10263C0001D127600AE020688046D8F8880000287D
:10264C0002D0D8F88880F8E7C8F888705F4800682E
:10265C0000F089F85D480068401C5C4908605B48E4
:10266C00006800289CD101205849086098E7386818
:10267C00BDE8F28F0268002A06D1524A126852F065
:10268C000402504B1A601FE04F4A11000A1D0368E8
:10269C009A4204D04E4A914201D09031F6E74C4A0E
:1026AC00914206D1474A126852F00802454B1A6013
:1026BC000AE00268D2F88820026001220A70404ABF
:1026CC001278521E3E4B1A70704700203C4908701D
:1026DC0001203E490860002080B2102808DA012150
:1026EC00394A80B2902303FB00F3D154401CF3E72A
:1026FC00002080B2402818DA00212F4A80B20C2327
:10270C0003FB00F3D15000212B4A80B20C2303FBB6
:10271C0000F31A4411710021274A80B20C2303FBE9
:10272C0000F31A449160401CE3E7234829490860F0
:10273C000020244908600FF26500274908607047A3
:10274C0080B525480068804701BD1B4A1368834249
:10275C0004D01A4B9A4201D00C32F7E7174B9A422D
:10276C0000D0117170471B49096808600121194A92
:10277C001268117119490968164A12689160154955
:10278C0009680C31134A1160124909680B4A9142CD
:10279C0002D109490F4A11607047000010480068C7
:1027AC00401E0F4908600E480068002803D14FF402
:1027BC007A700B49086070479821002098240020FB
:1027CC00162F00205C2E002098140020642E002070
:1027DC00981D0020682E0020602E00206C2E0020FA
:1027EC009C030020012110F01F029140DFF8FC2413
:1027FC0040B2430942F823107047012110F01F0228
:10280C009140DFF8EC2440B2430942F823107047A2
:10281C002DE9F04704002078012806D046D3032880
:10282C0023D012D3042830D040E0DFF8C8040500D0
:10283C0050200600DFF8C0040700002080465FF03F
:10284C00FF3081461A20824632E0DFF8B0040500E2
:10285C0050200600DFF8A0040700082080467FF017
:10286C00080081461A20824622E0DFF89404050015
:10287C0060200600DFF88C040700002080465FF023
:10288C00FF3081463020824612E0DFF87C040500E0
:10289C0050200600DFF8740407005FF40020804627
:1028AC007FF4002081460020824601E0002049E0B0
:1028BC002879C00701D5002044E0DFF854040068F3
:1028CC00012195F9222091400843DFF84414086057
:1028DC006068686160882884A068A861E068E86125
:1028EC00686850F0010068602868066028684760D6
:1028FC002868C0F808802868C0F80C902868C0F8D0
:10290C0020A060682968C1F800016068401C296833
:10291C00C1F8100101202968C1F8040101202968BF
:10292C00C1F8140140F201102968C1F8200195F991
:10293C00220040B2FFF761FF95F9220040B2FFF789
:10294C0051FF2800BDE8F08770B582B004000D007F
:10295C008DF800506A46012114F10800FFF70CFEB7
:10296C000600002E06D0DFF8B0030068002801D561
:10297C0000F09BF8300076BDF8B504000D00160091
:10298C003200290014F10800FFF7F6FD0700002FB4
:10299C0006D0DFF884030068002801D500F085F824
:1029AC003800F2BD0020DFF874130860DFF8700304
:1029BC00DFF8401308600020DFF83813886000202F
:1029CC00DFF8301348610020DFF82813088400205A
:1029DC00DFF8201388610020DFF818134860082006
:1029EC00DFF8101381F82200DFF83803DFF80C133E
:1029FC0008600020DFF8041388600020DFF8FC1268
:102A0C0048610020DFF8F41208840020DFF8EC1293
:102A1C0088610020DFF8E41248600D20DFF8DC123A
:102A2C0081F82200DFF80003DFF8D41208600020E0
:102A3C00DFF8CC1288600020DFF8C4124861002057
:102A4C00DFF8BC1208840020DFF8B4128861002083
:102A5C00DFF8AC1248600E20DFF8A41281F82200D7
:102A6C00DFF8C802DFF8A01208600020A6498860D1
:102A7C000020A54948610020A34908840020A249F0
:102A8C0088610020A04948600F209F4981F82200EE
:102A9C009848A74908600FF27D109E49086070475E
:102AAC0080B59C480068804701BD80B59B48006894
:102ABC0050F00100994908608E489D49086097487C
:102ACC000078C0070BD59348006880479948006888
:102ADC009949086001219848FEF7BEFBEFE701BD5C
:102AEC0080B5844895490860954896490860964891
:102AFC000068401C9449086000F010F801BD80B5D6
:102B0C007E488E49086091488E490860904800685C
:102B1C00401C8F49086000F001F801BD80B5874862
:102B2C00006800680069000738D5844800680068B0
:102B3C004069000732D583480068006850F00200F5
:102B4C008049096808607D4800680068D0F8100169
:102B5C00401C7A4909680968C1F810017748006877
:102B6C000068D0F81001754909684969734A126800
:102B7C00128C1144884207D17048006840696F4933
:102B8C0009680968C1F810016C480068C069804781
:102B9C0001206A4909680968C1F81401674800688E
:102BAC0000680069C00632D5644800680068406956
:102BBC00C0062CD504216148006880680068FFF7C6
:102BCC00C4FD5E4800680830FFF754FD5B480068A0
:102BDC00406830F400105949096848604FF400709F
:102BEC00564909680968C1F8200110205349096841
:102BFC000968C86057480078002805D05548007807
:102C0C00401E5449087002E05348FEF793FB01BD87
:102C1C000000000080B5464800688068002836D067
:102C2C00434800684068800231D402214048006863
:102C3C0080680068FFF789FD3D480068406850F4E3
:102C4C0000103B49096848603948006880680830C2
:102C5C00374909680968C1F8080135480068806877
:102C6C004068334909680968C1F80C0110203049E3
:102C7C0009680968886037480078401C3549087035
:102C8C004FF480702A4909680968C1F82001284866
:102C9C00006890F82200082806D00D2808D00E28CD
:102CAC000AD00F280CD01DE01448214908601CE004
:102CBC0013481F49086018E013481D49086014E0C8
:102CCC000C481B49086014480068002809D52148A5
:102CDC000078002805D111480068400840000F49D1
:102CEC00086002E003481249086001BD00E100E001
:102CFC0080E200E0EC2B0020C0084000102C0020EB
:102D0C00342C0020CE184500582C0020FF18410010
:102D1C0010040E40CC2E0020542E0020D42E002067
:102D2C0000060E40000009400040094000800940A8
:102D3C00D82E00206C2E0020D02E0020DC2E00205F
:102D4C00C42E0020E02E0020E42E0020C82E0020EF
:102D5C00E82E00201A2F00202C7C080010B4DFF87D
:102D6C001823C0B20A2303FB00F31A44D279012AB8
:102D7C000DD1DFF80823DFF80033C0B20A2404FBBE
:102D8C0000F423441B7A02EB830211000BE0DFF802
:102D9C00F022B94BC0B20A2404FB00F423441B7A82
:102DAC0002EB83021100B74AC0B252F820200A602D
:102DBC000022B14BC0B20A2404FB00F41A5510BC1B
:102DCC00704710B4AC4AC0B20A2303FB00F31A4498
:102DDC00D279012A0BD1AA4AA74BC0B20A2404FB10
:102DEC0000F423441B7A02EB830211000AE0A34A8D
:102DFC00A14BC0B20A2404FB00F423441B7A02EB5F
:102E0C00830211009F4AC0B252F820200A600022AF
:102E1C00994BC0B20A2404FB00F41A5510BC70473D
:102E2C009949954AC0B20A2303FB00F31A44127A5B
:102E3C0001EB82010A68934BC0B253F820305A4020
:102E4C000A6070472DE9F04182B04FF47A654FF477
:102E5C00FA76A81B1421B0FBF1F714200400E4B29D
:102E6C00002C30D05FF014081FFA88F8B8F1000F6E
:102E7C000DD086480068009001216846FEF7ECF9F9
:102E8C000028F9D000F035F8B8F10108ECE7E4B20D
:102E9C00142C05D1C8216846FEF7DEF90028F9D0BC
:102EAC000020C0B20D280ADAE4B2611E724AC0B228
:102EBC000A2303FB00F31A445180401CF1E7ED1B7D
:102ECC00BE19641ECBE700F014F8C8216846FEF763
:102EDC00C3F90028F9D00C20FFF740FF6C480068BC
:102EEC0050F001006A4908606A48FEF723FABDE811
:102EFC00F38110B50024E4B20D2C80F2BC805E4846
:102F0C00E4B20A2101FB04F1405C012840F07F800F
:102F1C005948E4B20A2101FB04F10844B0F902005B
:102F2C00002804D12000C0B2FFF74BFF67E05248E5
:102F3C00E4B20A2101FB04F10844B0F902001428A0
:102F4C0004D12000C0B2FFF709FF58E04A48E4B2B0
:102F5C000A2101FB04F108448088401E4649E4B272
:102F6C000A2202FB04F2114488804348E4B20A218D
:102F7C0001FB04F108448088002840D13E48E4B2AB
:102F8C000A2101FB04F10844807901281DD120009D
:102F9C00C0B2FFF716FF3848E4B20A2101FB04F176
:102FAC000844B0F90200D0F114003349E4B20A220B
:102FBC0002FB04F21144888000202F49E4B20A225B
:102FCC0002FB04F21144887119E02000C0B2FFF733
:102FDC00C5FE2948E4B20A2101FB04F108444088EB
:102FEC002549E4B20A2202FB04F211448880012034
:102FFC002149E4B20A2202FB04F211448871012037
:10300C001D49E4B20A2202FB04F2885431E01A484A
:10301C00E4B20A2101FB04F1405C022829D11648D4
:10302C00E4B20A2101FB04F108448088401E1249D5
:10303C00E4B20A2202FB04F2114488800E48E4B286
:10304C000A2101FB04F108448088002811D12000DA
:10305C00C0B2FFF7E5FE0848E4B20A2101FB04F117
:10306C00084440880449E4B20A2202FB04F21144E9
:10307C008880641C3FE710BD00030020300C0E401C
:10308C00340C0E40CC020020380C0E406C2E00206C
:10309C00582E00208403002062F30F2262F31F429B
:1030AC00401810F0030308D0C91A1FD3DB0748BF20
:1030BC0000F8012D28BF20F8022D130030B414465F
:1030CC001546103928BF20E93C00FAD8490728BF1B
:1030DC0020E90C0048BF40F8042D890028BF20F8D7
:1030EC00022D48BF00F8012D30BC7047C91818BF1D
:1030FC0000F8012DCB0728BF00F8012D7047FEE723
:10310C000749086808B1002070470648C008C0008D
:10311C0008600549C908C900091A0160704700BF59
:10312C00F82E00200700082000400820F0B583B0DE
:10313C0004000D0016003088ADF800007088ADF862
:10314C000200EDB2002D08D1062007000720ADF8D3
:10315C0004000520ADF8060007E00B2007000E2048
:10316C00ADF804000A20ADF806002078002824D021
:10317C00BDF80200802820DAEDB2002D0AD1694694
:10318C00DFF88C08227807235A431044E03800F00B
:10319C0053F80AE06946DFF87C0822781C235A436E
:1031AC001044B0F5A86000F047F8BDF80200FFB27B
:1031BC003818ADF80200641CD7E7F7BD30B4012114
:1031CC004288082392FBF3F243880824C9B293FB8C
:1031DC00F4F504FB15339940DFF83C3804882401DE
:1031EC002344D2B2DFF8304805882D012C44D2B2EA
:1031FC00A45C0C439C5430BC704730B40121428811
:10320C00082392FBF3F243880824C9B293FBF4F52C
:10321C0004FB15339940DFF800380488240123445B
:10322C00D2B2DFF8F44705882D012C44D2B2A45C4D
:10323C008C439C5430BC70472DE9F84F04000D00B2
:10324C002888402880F2B2806888802880F2AE807E
:10325C00A8888DF8000028889DF8001008184128CF
:10326C0004DB2888D0F140008DF80000E888834604
:10327C0068881FFA8BFB1BEB0000812803DB688836
:10328C00D0F180008346002108009DF8002080B218
:10329C0092B2904280F08780012006000020804688
:1032AC0068880822012390FBF2FC02FB1C0013FA35
:1032BC0000F007006888082290FBF2F0814600229B
:1032CC0010005B4680B29BB298426AD2E888082311
:1032DC0090FBF3FC03FB1C0000280AD189B2E888A0
:1032EC00082390FBF3F01FFA88F800FB018082465C
:1032FC000AE089B2E888082390FBF3F0401C1FFA1F
:10330C0088F800FB018082461FFA8AFA14F80A003A
:10331C0030421AD0DFF8000789B22B885B181B01EA
:10332C0018441FFA89F9DFF8F03689B2B5F800C0F5
:10333C001CEB010C5FEA0C1C63441FFA89F913F8AF
:10334C0009303B4300F8093019E0DFF8CC0689B2AC
:10335C002B885B181B0118441FFA89F9DFF8B83663
:10336C0089B2B5F800C01CEB010C5FEA0C1C63447D
:10337C001FFA89F913F80930BB4300F809307600BD
:10338C00F6B2002E03D10120060018F101087F00CF
:10339C00FFB2002F03D10120070019F10109521CC3
:1033AC008EE7491C70E7280000F044FABDE8F18F65
:1033BC002DE9F0410400A08807002088FFB23818DE
:1033CC00412803DB2088D0F140000700E0888046CC
:1033DC0060881FFA88F818EB0000812803DB6088EE
:1033EC00D0F180008046208880B22188FFB2791805
:1033FC00884230DA6188082291FBF2F10E00618874
:10340C000822012391FBF2FC02FB1C1113FA01F1BF
:10341C000D0000210A00434692B29BB29A4218D288
:10342C00DFF8F42580B203011A44B6B2DFF8E835B0
:10343C0080B25FEA001C6344B6B29B5DAB4393550C
:10344C006D00EDB2002D02D101221500761C491C35
:10345C00E0E7401CC8E7200000F0ECF9BDE8F08183
:10346C0080B5002080B240280FDA002189B21029E3
:10347C0009DADFF8A42580B203011A4489B20023CB
:10348C005354491CF2E7401CECE7DFF8900500F0C0
:10349C00D1F901BD10B50400DFF884050078C00730
:1034AC0022D4DFF87C05006850F00100DFF87015BD
:1034BC000860DFF8700504704FF40040DFF8681501
:1034CC000860DFF860250121DFF860050068FEF771
:1034DC00BFFBDFF85C1508600020DFF858150860AA
:1034EC0000F0E9F8012000E0002010BD3EB50C20F2
:1034FC00FFF734FCDFF840050068DFF8381508608A
:10350C000FF2D130DFF834150860DFF83405DFF83E
:10351C00341508600320DFF830150870DFF82C052F
:10352C00DFF8241548604FF48050DFF81C158860D4
:10353C00DFF80C05DFF810158861DFF80805DFF8F7
:10354C000815C8610120DFF8001508840020DFF899
:10355C00F81408730020DFF8F0144873DFF8E8045F
:10356C00FEF7D2FADFF8C41408604FF48050DFF88D
:10357C00B81408604FF48040DFF8D41408600020C1
:10358C000A2801D2401CFBE74FF48040DFF8981466
:10359C000860DFF8A4040068DFF8B81408600221A2
:1035AC00DFF8B004FDF758FE0028F8D04FF4804047
:1035BC00DFF89C140860DFF880040068DFF89414CE
:1035CC0008600221DFF88C04FDF746FE0028F8D0D5
:1035DC000B200400002528002100C0B2C9B288428B
:1035EC0014D2DFF87404EDB2405DFFF753FFDFF83F
:1035FC0048040068DFF85C1408600521DFF8540407
:10360C00FDF72AFE0028F8D06D1CE4E7DFF80C0467
:10361C00FFF7CEFE00F04FF8DFF81C040068DFF86F
:10362C00341408604FF4FA71DFF82804FDF714FE27
:10363C000028F7D0A420FFF72DFFDFF8E003FFF7F9
:10364C00B7FE0020ADF804002820ADF806003220AB
:10365C00ADF808003220ADF80A0001A9DFF8FC0330
:10366C00FFF7EAFDDFF8F80300F012FA06214843F1
:10367C004008D0F14000ADF802003820ADF8000051
:10368C006A460021DFF8D803FFF750FD00F013F86D
:10369C00DFF8D003006850F00800DFF8C8130860AA
:1036AC00DFF8C403FDF746FE37BD80B5DFF88C03A9
:1036BC000068804701BD80B5DFF8B00300680028C2
:1036CC001FD50020DFF86C130860DFF85403006886
:1036DC0050F08050DFF848130860DFF844030068AE
:1036EC00C0000ED5DFF8540300688047DFF84803AC
:1036FC000068009001216846FDF7AEFD0028ECD172
:10370C00F8E701BD38B50400DFF864034088D0F158
:10371C008000DFF85C13C988451ADFF804030078D1
:10372C00C00721D454F0B000BE490870C5F3031093
:10373C0050F01000BB49487015F00F00B949887063
:10374C004FF40040B8490860B548006850F00100DB
:10375C00B3490860B34A0321B4480068FEF778FA0D
:10376C00B3490860012000E0002032BD2DE9F0478C
:10377C000400AC480600BE484088BD49C9880818FA
:10378C00401E082190FBF1F00700B9484088B84969
:10379C00C9880818401E0821012290FBF1F301FB97
:1037AC00130012FA00F08146E4B2A4B2E000050066
:1037BC000120804600210800AD4AD28880B2904298
:1037CC0029D2002082460022D2B2082A12DA92486C
:1037DC00ADB2D2B253191B011844FFB2C05D10EA4E
:1037EC00090F05D05FFA88F818FA02F050EA0A0AB5
:1037FC00521CE9E786F800A0761C5FFA89F95FEAAB
:10380C0059095FFA89F9B9F1000F02D1802081467C
:10381C007F1E491CCFE74FF400408D490860814A58
:10382C009348C18881480068FEF712FA8049086005
:10383C00BDE8F0878F4A9288002A0CD142888D4BC4
:10384C005A8002888B4B1A80C2888A4BDA80828815
:10385C00884B9A803BE04288864B5B889A4202D226
:10386C004288844B5A800288824B1B889A4202D22F
:10387C000288804B1A80B0F90020B0F904309A18F5
:10388C007C4BB3F90030D21A7A4BB3F90430D21A0C
:10389C00110009B2012904DB764A92888A18754B0B
:1038AC009A80B0F90220B0F906309A18714BB3F92E
:1038BC000230D21A6F4BB3F90630D21A110009B28A
:1038CC00012904DB6B4AD2888A186A4BDA8070476C
:1038DC000000000080B552480078C0070BD5564850
:1038EC0000685C4908606448644908600FF2AD00E8
:1038FC005249086051E019214E48FDF7ADFC0028F3
:10390C0045D04D4800684B4908605A4880880028CB
:10391C0043D058488088564988805648C0885449B6
:10392C00C880544800885249088052484088504901
:10393C00488000204F49888000204E49C8800020D4
:10394C004C49088000204B49488049480088484928
:10395C0089880818401E082190FBF1F04449098819
:10396C00082291FBF2F1401A401C4549087040486E
:10397C000088082190FBF1F042490870414800781A
:10398C00FFF7C0FE0FF215002C49086005E0244833
:10399C00006830F080502249086001BD80B5244891
:1039AC000068FEF7CDFD042831D135480078002899
:1039BC0020D01B480078C00714D51948006840086F
:1039CC004000174908602F480078FFF7CFFE2D48BC
:1039DC000078401C2B49087029480078401E284963
:1039EC00087003E027480078FFF78CFE264823492F
:1039FC00086008E00A480068244908400849086043
:103A0C001D481E4908601D4800680C49086001BD2E
:103A1C00C06B0800C8740800981D00209802002094
:103A2C00382E0020C8290020340E0E404C2E0020C9
:103A3C00482E0020402E00206C2E0020342E00201A
:103A4C00152F0020502E0020C82B0020000E0E40F9
:103A5C00300E0E403C2E0020C002002020720800C8
:103A6C00AC020020582E0020A0020020542E002072
:103A7C00942D00208C2D0020E1380800442E0020CD
:103A8C00132F0020142F0020A9390800FEFFFFEF90
:103A9C0000F10103810704D010F8011B89B18107E3
:103AAC00FAD10268B2F10131914311F0803F04BFA9
:103ABC0050F8042FF6E710F8011B11B110F8011B98
:103ACC00FBE7C01A7047FEE7012110F01F0291407E
:103ADC00DFF8A42540B2430942F8231070470121B6
:103AEC0010F01F029140DFF8942540B2430942F8D0
:103AFC002310704710B51224DFF8940500680121DB
:103B0C00A1400843DFF8881508600020DFF8841511
:103B1C000860DFF88405DFF86C1508600020DFF81A
:103B2C006C1508700020DFF8741508700020DFF8A1
:103B3C0050150870DFF86805DFF85C150860002088
:103B4C00DFF8541548600020DFF84C158860002021
:103B5C00DFF84415C860DFF82C05006800680068C1
:103B6C0050F08000DFF81C15096809680860DFF860
:103B7C0034050068DFF8301508600521DFF82805EA
:103B8C00FDF76AFB0028F8D0DFF82005DFF8F41405
:103B9C000968096808612420DFF8E81409680968D5
:103BAC0008600020DFF8DC140968096848604FF4ED
:103BBC00A170DFF8D0140968096848624FF63560C7
:103BCC00DFF8C014096809688862200040B2FFF76A
:103BDC0086FF200040B2FFF777FF0020DFF8D014FB
:103BEC0008600020DFF8CC1408600FF26910DFF8D1
:103BFC00C814086010BD80B5DFF8BC0400688047AD
:103C0C0001BD0120C0B200281DD0DFF8A414096842
:103C1C00002918D0DFF89C1409680978DFF86424AF
:103C2C00126812685163DFF88C140968491CDFF8BC
:103C3C0084241160DFF878140968491EDFF87024B9
:103C4C001160401EDEE7DFF86814096800291CD1FA
:103C5C000421DFF83024126812689162DFF828140E
:103C6C00DFF83824127812011144897A002912D114
:103C7C00DFF8101409680968096851F00201DFF8CF
:103C8C00042412681268116005E00421DFF8F423A3
:103C9C00126812685162704710B5DFF82004006892
:103CAC000400DFF81C0400680440E00508D5DFF8C8
:103CBC00E403006850F08070DFF8D813086046E029
:103CCC00A00731D5DFF8BC030068007B00072BD5BB
:103CDC00DFF8B00300680068006BDFF8A813096810
:103CEC0089680870DFF89C0300688068401CDFF866
:103CFC00941309688860DFF8B8030068401EDFF889
:103D0C00B0130860DFF8A803006801281FD1DFF8A2
:103D1C00740300680068006850F00200DFF8641358
:103D2C0009680968086012E0600708D5DFF85403D9
:103D3C000068007B800702D5FFF763FF07E0DFF820
:103D4C005403006850F00070DFF84813086010BD91
:103D5C000000000080B5DFF834030078DFF83C1376
:103D6C000978884200F096800020DFF81813096863
:103D7C00096848602420DFF80C130968096808609A
:103D8C00DFF80403DFF8141309780901405C0028FC
:103D9C0032D1BC48006800684068BB49DFF8FC229F
:103DAC00127812011144097A50EA0140B5490968A8
:103DBC0009684860B348006840684068BC490860BE
:103DCC00B048006840680830BA490860FFF719FF2E
:103DDC000221AC48006840680068FEF7B6FCA948B0
:103DEC000068C06850F00600A6490968C8600FF268
:103DFC00A900B149086044E0A348A8490978090121
:103E0C00405C01283DD19F480068006840689D498E
:103E1C000968096848609C48A04909780901084468
:103E2C004068A349086098489C49097809010844EE
:103E3C00C0689449096888609D48006801280AD1C7
:103E4C00904800680068006850F003008D490968CC
:103E5C000968086009E08B4800680068006850F049
:103E6C000100884909680968086086480068C068CC
:103E7C0050F0080083490968C8600FF2F1008E49C0
:103E8C0008608448006810F07F4F03D00FF2551083
:103E9C008949086001BD000080B57B487F490978DD
:103EAC0009010844807A002818D18148006800284C
:103EBC0026D1744800680068006A400720D5714814
:103ECC0000680068006AC0071AD56E480068C068B0
:103EDC0030F006006B490968C86011E0744800684E
:103EEC0000280DD1674800680068006A400707D5B4
:103EFC0064480068C06830F0020062490968C86014
:103F0C0060480068007B800725D404215D48006868
:103F1C0040680068FEF719FC5A480068001DFEF75F
:103F2C00A9FB5C480068400840005A490860654895
:103F3C006149086059480078401C5849087050483D
:103F4C000078401E4E49087054480078102802D161
:103F5C000020524908704F48006810F07F4F03D082
:103F6C000FF281005449086001BD00005048006800
:103F7C0000282DD1434800680068006A800727D5C7
:103F8C00404800680068006AC00721D53D480068B9
:103F9C00C06830F008003B490968C8603D480068BB
:103FAC00400840003B4908604648434908603B488C
:103FBC000078401C3949087031480078401E30495F
:103FCC00087036480078102802D100203349087058
:103FDC003048006810F07F4F03D00FF209003649CB
:103FEC000860704780B52B480068C0013AD5264858
:103FFC002649097809010844407A401C2249234A81
:10400C0012781201114448721F482049097809019D
:10401C000844407A032821D120480078401C1F49CD
:10402C00087017480078401E154908701B48007826
:10403C00102802D100201949087012480068007B32
:10404C0080070BD506210F48006840680068FEF712
:10405C007CFB0C480068001DFEF70CFB0020094996
:10406C000968C8600B48006820F07F400949086067
:10407C0014481149086001BD00E100E080E200E055
:10408C00192F0020882E002098250020172F0020A3
:10409C0010040E40842E0020602D0020182F0020CC
:1040AC00004008406C2E0020802E00201D1D0200B8
:1040BC008C2E0020902E00207C2E00202C400840BE
:1040CC0020400840613D080010B50400012000F0BC
:1040DC00C9FAFA2000F061FBDFF848140860002CE4
:1040EC0012D000F0DBFB20600020606000202081FB
:1040FC0000206081FA2000F050FBE0600FF20D0010
:10410C002061E06800F06CFB10BD000038B50400C5
:10411C00606800F0A0FC60606568206890F8F100B1
:10412C00401F022190FBF1F068837FF00100A8830F
:10413C0065600921022000F0B3FA0A21022000F088
:10414C00AFFA0FF20900206131BD000010B5040078
:10415C00012000F0F0FA002802D1200000F0A8F9AC
:10416C00E06800F048FB002802D00FF20900206143
:10417C0010BD000010B504006168206800F0DAF88A
:10418C00002803D00FF20D00206102E00FF29D0019
:10419C00206110BD2DE9F04182B0040025686668ED
:1041AC00200000F010F9002803D00FF2A5002061C8
:1041BC003AE03100280000F02EF90021300000F028
:1041CC0071FC00275FF000085FFA88F8B8F1050F62
:1041DC0020DA00225FFA88F8414609B2300000F07C
:1041EC005AF90090BDF90200002810D4BDF9020064
:1041FC0018280CDA0122BDF802000100C9B228000F
:10420C0000F02DFB002802D00120070002E018F17D
:10421C000108D9E7FFB2002F03D00FF2390020615B
:10422C0002E0DFF804032061BDE8F38138B5040037
:10423C006568A88B401CA883E06800F0D7FA0721BA
:10424C00022000F02DFADFF8E402206131BD0000FD
:10425C0070470000F8B5040065682668DFF8D002E6
:10426C000078002802D0012847D062E01820DFF83F
:10427C00C412087017273800C0B2B5F91C1000B270
:10428C0088420DDB01223900C9B2300000F0E7FA98
:10429C00002803D0DFF89C02077001E07F1EEAE7DC
:1042AC00DFF890020078182824D0002000B20A28E9
:1042BC0009DAA04909780A225143314400B200229C
:1042CC000A54401CF2E79748006800F08FFA9548B2
:1042DC00006800F088FA2089401C20810821022007
:1042EC0000F0DEF90A21022000F0DAF901209049F1
:1042FC00087001E08C4820611BE08A480068407A15
:10430C00012812D18748006800F075FA00280CD0FB
:10431C0088480178300000F071FA0821022000F082
:10432C00BFF900208249087003E07E48006800F065
:10433C0057FAF1BD2DE9F84304000D0000260020CA
:10434C0007003FB2052F3ADA5FF0000904208046DF
:10435C000FFA88F8B8F1000F2FD45FFA89F9B9F188
:10436C00000F27D10FFA88F8052000FB08F028442D
:10437C003FB2C05D01281DD1012081463A0012B226
:10438C00414609B2280000F086F80090BDF9020001
:10439C00172802D1012006000CE0BDF902000A2109
:1043AC0048432044BDF900100844807A012801D10B
:1043BC0001200600B8F10108CAE77F1CC1E73000F4
:1043CC00C0B2BDE8F283F8B504006568002636B2C9
:1043DC00052E1EDA00273FB2052F18DA36B205205B
:1043EC0000FB06F028443FB2C05D01280DD13A0015
:1043FC0012B2310009B2280000F04DF80090BDF95E
:10440C000200002801D5012004E07F1CE3E7761CA4
:10441C00DDE70020F2BDF8B504000D00002636B231
:10442C00052E37DA00273FB2052F31DA3A0012B2E7
:10443C00310009B2280000F02EF80090BDF9000000
:10444C00002823D4BDF900000A281FDABDF90200A8
:10445C0000281BD4BDF90000182817DA36B2052045
:10446C0000FB06F028443FB2C05D01280ED1BDF917
:10447C0002000A2148432044BDF9001036B205223F
:10448C0002FB06F22A443FB2D25D42547F1CCAE7BB
:10449C00761CC4E7F1BD81B00300588B1018ADF841
:1044AC000000988B0818ADF80200009801B0704716
:1044BC002DE9F0410400256866680027012000F012
:1044CC0015F907005FF001083800012806D0022812
:1044DC0009D005280CD006280FD013E03100280095
:1044EC0000F06CF810E03100280000F07CF80BE0D4
:1044FC003100280000F08CF806E03100280000F0B4
:10450C009CF801E0002080465FFA88F8B8F1000FB3
:10451C0003D00721022000F0C3F817F1010FCDD111
:10452C00BDE8F081302E00201941080059410800E7
:10453C00122F002096040020F8B504000D00002670
:10454C00F6B2052E38DA0027FFB2052F32DAF6B2B2
:10455C00052000FB06F02844FFB2C05D012827D1DE
:10456C00FFB23A0012B2F6B2310009B22800FFF7DE
:10457C0092FF0090BDF90000002803D4BDF90000A3
:10458C000A2801DB012018E0BDF9020001280FDB2D
:10459C00BDF9020019280BDABDF902000A214843C3
:1045AC002044BDF90010405C012801D1012004E039
:1045BC007F1CC9E7761CC3E70020F2BD38B50400A8
:1045CC000D00688B401E688329002000FFF7B4FFA4
:1045DC00002803D0688B401C688303E0072102206D
:1045EC0000F05EF831BD38B504000D00688B401C3E
:1045FC00688329002000FFF79FFF002803D0688BF9
:10460C00401E688303E00721022000F049F831BD09
:10461C0038B504000D00280000F062F929002000D4
:10462C00FFF78AFF002803D0280000F089F903E087
:10463C000721022000F034F831BD38B504000D001C
:10464C00280000F07DF929002000FFF775FF0028F5
:10465C0003D0280000F044F903E00721022000F009
:10466C001FF831BD38B50400E4B2032C15DA3C4810
:10467C00E4B20C2101FB04F100EB0105012068728E
:10468C002C725020FDF7C4FE68600020687000207A
:10469C00A87000202870012001E05FF0FF3032BDCF
:1046AC0070B40200D2B2032A1CDA2D48D2B20C2309
:1046BC0003FB02F30344587A012813D11C00207821
:1046CC000A280FDA6068A5784155A078401C0A25A5
:1046DC0090FBF5F605FB1600A0702078401C2070AE
:1046EC00012001E05FF0FF3070BC704770B4010036
:1046FC00C9B203291BDA1A48C9B20C2202FB01F217
:10470C000244507A012812D11300187800280ED0D8
:10471C0058685C78005D5C78641C0A2594FBF5F69F
:10472C0005FB16445C701C78641E1C7001E05FF085
:10473C00FF3070BC70470100C9B203290DDA08487C
:10474C00C9B20C2202FB01F20244507A012804D1B6
:10475C001078002801D0002000E0012070470000F4
:10476C00A42B00200020C0B20A2815DA1B49C0B2C5
:10477C0051F8201000290DD04A7A002A0AD00A7A62
:10478C00002A07D14A68521E4A604A68002A01D1A1
:10479C0001220A72401CE6E7704770B50400002540
:1047AC000026F6B20A2E16DA0C48F6B250F826009D
:1047BC0000280ED11020FDF72BFE0500002068729A
:1047CC00002028726C602C600448F6B240F8265029
:1047DC0001E0761CE5E7280070BD0000302B0020BE
:1047EC00012141727047002141727047016841609C
:1047FC00002101727047007A7047FEE710B4002860
:10480C002BD0C9B200291BD000231A00130090F83A
:10481C00F140DBB2A34211D2C9B20A2303FB01F36C
:10482C000344D2B2C9B20A2404FB01F40444D2B248
:10483C00144414F80A4C9C54521CE7E7491EE0E758
:10484C0000231A00130090F8F140DBB2A34204D20B
:10485C000023D2B28354521CF4E710BC704770B4DE
:10486C0003000120002B16D000252C00250093F806
:10487C00F160EDB2B5420ED2C9B20A2505FB01F5C5
:10488C001D44E4B22D5D1600F6B2B54201D00025F0
:10489C002800641CEAE7C0B270BC704710B5F22067
:1048AC00FDF7B6FD0A2180F8F110182180F8F01000
:1048BC0000231A00D2B2182A10DA00231900C9B248
:1048CC000A2909DAD2B20A2303FB02F30344C9B260
:1048DC0000245C54491CF2E7521CEBE710BDFEE7C8
:1048EC0030B589B00400002C28D0684621001E2267
:1048FC00FCF7E4FC0020002100221100C9B20529BC
:10490C001CDA00221000C0B2052815DAC9B2052243
:10491C0002FB01F22244C0B26B46C0B2052505FB76
:10492C0000F52B44C9B25FF0FF3505FB01F52B44B4
:10493C001B791354401CE6E7491CDFE709B030BD76
:10494C0030B589B00400002C25D0684621001E2209
:10495C00FCF7B4FC0020002100221100C9B205298B
:10496C0019DA00221000C0B2052812DAC9B20522E9
:10497C0002FB01F22244C0B26B46C0B27FF00405C8
:10498C0005FB00F52B44C9B20B441B7D1354401C92
:10499C00E9E7491CE2E709B030BDF8B504001E2078
:1049AC00FDF736FD0500E4B2002C09D0022C17D01F
:1049BC000ED3042C24D01BD3062C31D028D337E0B3
:1049CC001926304F320039002800FCF777FC34E010
:1049DC0019262D4F320039002800FCF76FFC2CE013
:1049EC0019262A4F320039002800FCF767FC24E016
:1049FC001926274F320039002800FCF75FFC1CE019
:104A0C001926244F320039002800FCF757FC14E01B
:104A1C001926214F320039002800FCF74FFC0CE01E
:104A2C0019261E4F320039002800FCF747FC04E021
:104A3C002800FDF745FD002004E0002068830020DD
:104A4C00A8832800F2BD10B50400002C02D0200071
:104A5C00FDF736FD10BD38B50400002C02D0200047
:104A6C00FFF7F1FF0E48006800F034F800F042F850
:104A7C00072190FBF1F201FB12052800C0B2FFF7F1
:104A8C008CFF32BDA07C0800BC7C0800D87C0800E0
:104A9C00F47C0800107D08002C7D0800487D08007F
:104AAC006C2E002010B4002812D00022D2B2052A9D
:104ABC000EDA0023DBB2052B08DAD2B2052404FB94
:104ACC0002F40444DBB2E1545B1CF3E7521CEDE747
:104ADC0010BC704710B50446044800F07BF8002168
:104AEC000170034800F076F8046010BD0804002043
:104AFC000C040020F8B5344F384600F06BF804462F
:104B0C00381D00F067F8054607F1080000F062F860
:104B1C00064607F10C0000F05DF823782B492C4A6F
:104B2C00002B40D12B6802FB03132B60082702FBE0
:104B3C0003132B6002FB03132B6002FB03132B608C
:104B4C0002FB03132B6002FB03132B6002FB03130A
:104B5C002B6002FB03132B600346D5F800C002FB4D
:104B6C000C1CC5F800C043F804CB7F1ED5F800C060
:104B7C0002FB0C1CC5F800C043F804CBD5F800C0F0
:104B8C0002FB0C1CC5F800C043F804CBD5F800C0E0
:104B9C0002FB0C1CC5F800C043F804CBDDD1C36F7D
:104BAC003360012323702B6802FB031129603178D9
:104BBC0001F01F0150F8212032602A6840F82120B2
:104BCC00306820F04040F2BD080400205FF36E3CDA
:104BDC000D6619007047FEE72DE9F14F98B000F013
:104BEC0061FB0B90002000908046DFF8A044DFF8BA
:104BFC00A0040178012946D0012101702068020C23
:104C0C00A26061680B0CE360DFF888542F683F0CDE
:104C1C00AF606D682D0CDFF87C74FD601343A360EE
:104C2C00C4F80C80CDF8008000250122009F02FA08
:104C3C0005F61E40AE40374300976D1C102DF5D382
:104C4C00009BA360DFF84C34009D6D009D60C3F8A1
:104C5C000C8008432060C4F80480CDF80080002745
:104C6C00009902FA07F30340BB40194300917F1CE3
:104C7C00102FF5D30098206000984000DFF8141432
:104C8C000860C1F8048004A80CA916AA13AB11ADD6
:104C9C00189F04EB87070397189EDFF8F8E30EEBD9
:104CAC00860CA646022657F8089BC0F800905CF8C4
:104CBC00089B41F8049B50F8049B42F8049BDEF8D7
:104CCC000090DEF804A04AEA090943F8049B45F871
:104CDC00048B0EF1080E761EE5D1012000F0E6FAE9
:104CEC00DFF8B4530498002800F0488102900C9827
:104CFC000190189854F820006862189854F8200015
:104D0C002860189854F820006865189854F820000A
:104D1C006865029828650198286502986860019872
:104D2C0068600298286201986862019828605FEABE
:104D3C00884033D40B9800F0B9FA00BF012000F082
:104D4C00B5FA019868600298286000BF00BF00BFE8
:104D5C0000BF00BF00BF00BF00BF00BF00BF029874
:104D6C0068600198286008F10108CC480178491C5A
:104D7C000170C9B2022905D3032903D3042924BF26
:104D8C00002101700498E96A0840119011980028DC
:104D9C00CDD020686168084313902FE0002013A940
:104DAC0016AA04AB27464FF0020C4FF4005E3E6887
:104DBC00D7F8049059EA0606D3F8009010D05FEAB1
:104DCC00C97A44BFDFF8D8A22AF810E002D45FEA0F
:104DDC00C67A01D5401CC0B276084FEA5909EED10B
:104DEC0042F8049B41F8046B08371B1DBCF1010C05
:104DFC00DDD1002004900C9005900D900B9800F0E4
:104E0C0055FA00208DF840000021074613AA04AB88
:104E1C000A9316AB099311AB08930CAB9D4E0796F6
:104E2C0006941668002E7BD00A9E36680F96002ECC
:104E3C0076D0089ED6F800E0CDF838E0079ED6F87C
:104E4C0000C0079E766846EA0C064FF000094FEA50
:104E5C00471C4FEA5C0ACDF854A00AE05FEACA7C12
:104E6C0001D5401CC0B24FEA5E0E4FEA5A0CC2F894
:104E7C0000C0DDF824C0CCF800E0D2F800A0BAF1F4
:104E8C00000F32D0DDF824C0DCF800C0BCF1000FFC
:104E9C002BD05FEACE7C04D4E0E7491C760809F1FC
:104EAC000109002EDDD05FEAC67CF7D5C9B2884275
:104EBC00F3D1D3F800C04FF0010B0BFA09FB2CEA2D
:104ECC000B0CC3F800C0DDF854C05FFA89F90CEB89
:104EDC00690BDFF8CCC12CF81B801EF0FE0CC0D186
:104EEC004FF0010B8DF840B0BBE70F9EDDF838E0BA
:104EFC0026EA0E06DDF828E0CEF80060089E4FF09A
:104F0C00000EC6F800E0C2F800E09DF84060012EEB
:104F1C0018D104A850F82700002828D1F04626E024
:104F2C00069E3668DDF818E0DEF804E04EEA060E60
:104F3C0003E0009E009E4FEA560ECDF800E0009E66
:104F4C00002EF6D17F1C069E08360696079E083664
:104F5C0007961B1D089E361D0896099E361D099640
:104F6C000A9E361D0A96121D022FFFF65AAF01201B
:104F7C0000F09CF9049800287FF4D9AE059F494EA7
:104F8C00002F55D0189854F820006862189854F8DF
:104F9C0020002860189854F820006865189854F878
:104FAC002000686502970D98019002983065019871
:104FBC0030650298706001987060029830620198B8
:104FCC007062019830605FEA88403FF5E7AE0B985D
:104FDC0000F06CF900BF012000F068F901987060D6
:104FEC000298306000BF00BF00BF00BF00BF00BF11
:104FFC0000BF00BF00BF00BF029870600198306016
:10500C0008F1010825480178491C0170C9B2022930
:10501C0005D3032903D3042924BF00210170F06AAE
:10502C0038401290CFD0A068E16808431490E5E6B0
:10503C000398806870620398806830600398806879
:10504C007065039880687065189854F82000686241
:10505C00189854F820002860189854F820006865B7
:10506C00189854F82000686503988068706203985B
:10507C0080683060039880687065039880687065FC
:10508C000B9800F013F919B0BDE8F08FA02C00209C
:10509C001B2F0020B02C0020100C0E409704002079
:1050AC0038280020100E0E40F8B504460D46002698
:1050BC00754F387838B1304600F0FCF8761C3878EB
:1050CC00F6B28642F7D3714800210181046128466B
:1050DC00BDE8F24000F010BB44F204510180002105
:1050EC0041804FF488618180704738B50024664D4B
:1050FC00287838B1204600F0DDF8641C2878E4B23A
:10510C008442F7D331BD10B55F480021017060486F
:10511C0001705E4C042060701420207105206071B9
:10512C00E1701420A070012020700320A07100F009
:10513C00E8FA0020E06010BD2DE9F04100250027C1
:10514C00DFF85081A8F88C50504E3189411A89B241
:10515C00308108F28C025088091889B2C82908D30A
:10516C00C8230846B0FBF3F007464FF6387303FB31
:10517C00001151804848027822B1FFB2BA4234BFC4
:10518C000022D21B027045480068800800F07F7036
:10519C00B0F1007F02D0B0F1017F01D100F0C1FA73
:1051AC00F068010018BF80470024374E307890B16A
:1051BC00F9B2204600F01DF90543611C3078CCB2E1
:1051CC008442F5D3EDB235B1B8F88C004FF4807150
:1051DC000843A8F88C0040460421002280F8802067
:1051EC00401C491EFAD100203178A1B12C4A137809
:1051FC0018252B420AD008EBD00393F880500126D7
:10520C0000F00707BE40354383F88050401C08323D
:10521C00C0B28842EBD3B8F88C00BDE8F08138B549
:10522C00034600201E4901EBC3046179E278174D57
:10523C002D5642FA05F5EDB2042D38BF0425124A5D
:10524C00127893421ED22079C022104213D1084604
:10525C0000F03EFAC5EBA501814203DA217901F099
:10526C00FB012171694209B281420BDB217941F0CA
:10527C000401217132BD00F0FB0020712A46184652
:10528C0000F09EFA32BD00007C2C0020EC2C00209B
:10529C001C2F0020382800207D2C002040070E40B9
:1052AC0098260020EFF310807047704780F3108829
:1052BC007047704710B5044600F00AF8DFF8240474
:1052CC00012100F8341000EBC4000F21417010BD17
:1052DC0030B4DFF8103403EBC0046279A1790225F5
:1052EC0003F83050DFF80004038843F00203038016
:1052FC000020A07091420ADBDFF8F033D018001DBB
:10530C00802300F8013B521CD2B29142F9DA30BC36
:10531C007047F0B4DFF8CC1301EBC000817942790F
:10532C00DFF8C4331D88914220DBDFF8C47307EB30
:10533C00420407EB4206378890F801C0BCF10A0F13
:10534C000AD2B4F840C0674538BFACF1010703D3AB
:10535C00BC4505D267467F1CA4F8407045F0080593
:10536C00521CB61CA41CD2B29142E4DA1D80F0BCD3
:10537C007047F0B5DFF870231388DFF87043041919
:10538C002779DFF86CC30CEB4005B5F840603CF8AE
:10539C0010E0764512D2C8192071D6494979803966
:1053AC00C0B2C9B2884222D380202071B5F8400027
:1053BC00401CA5F8400043F0080318E0B6450DD298
:1053CC00781A2071CB490979C1F18001C9B2C0B2F8
:1053DC0081420CD380202071701EEAE7812F24BFFC
:1053EC00781E2071207980283CBF401C20711380CE
:1053FC00F0BD2DE9F04F83B081460F4600208DF8AB
:10540C00080000244846FFF70AFF0646CB46DFF8A3
:10541C00D48208EBCB05E878297901F00301491C0B
:10542C00C840022838BF0220E978091A89B218F856
:10543C003B0001280DD0022822D0042855D0082882
:10544C0000F00681102800F0BA80202800F01D81A1
:10545C003AE10124A44E30884FF4007108433080A7
:10546C004846FFF756FF6878401E6870C0B210B906
:10547C004846FFF72DFF9D489E498978417023E1EE
:10548C00287940070CD56879984940180471202078
:10549C0008F83B000124944E308840F4805012E10F
:1054AC00002E48BF0026B6B2E878864206DB042000
:1054BC0008F83B00AC7001248B4E01E1002F00F08A
:1054CC0003818A484078002840F0FE8095F80690C9
:1054DC006E79B145C0F2F88039463046FFF749FF86
:1054EC00761CF6B2B145F7DAEEE0300048BF00208A
:1054FC0080B2E97888425EDBDFF8F8A17B489AF845
:10550C0002104170A878401CA8702879C0F3C20022
:10551C00019070B3002775480078012829DB5F459E
:10552C001ED008EBC70000900079C0F3C2000199AF
:10553C00C9B2884214D13846FFF771FEE978711A66
:10554C00009AD278801A814204DAAC7001208DF86E
:10555C00080005E018F837001028F6D00828F4D019
:10556C00781CC7B2614800788742D8DB9DF80800E8
:10557C0040B99AF8010028B101245B4E308840F400
:10558C0000603080A8789AF801108842C0F09C80A6
:10559C00554E308840F003003080102008F83B0056
:1055AC00002068702879C021084200F08D804846A0
:1055BC0000F036FA88E04846FFF78AFE84E0287946
:1055CC0040070ED568794949401880210171202087
:1055DC0008F83B000124444E308840F48050308061
:1055EC0049E7300048BF00203F4E328880B28842E5
:1055FC0006DA082008F83B00012442F48060EEE74C
:10560C0042F001003080A878DFF8E8B09BF8011078
:10561C0088423CBF401CA8702879C02108421CBF9E
:10562C00484600F023F99BF8030000283FF423AF11
:10563C00697881423CBF78186870FFF41CAF48460B
:10564C00FFF738FE012430884FF400710843C6E799
:10565C002648284A92784270A8780028ABD03000AF
:10566C0048BF0020204E328880B28142BEBF10203D
:10567C0008F83B0042F00100A4BF012442F4806012
:10568C003080A878401EA8701EE068791749401831
:10569C000179491C01712879400705D408068AD57F
:1056AC00102008F83B000FE00F4E12488079C9B269
:1056BC00814204D34846FFF7FDFD0124ECE60124AA
:1056CC00308840F480603080204603B0BDE8F08F15
:1056DC00074901EB4002B2F9402031F91000101AD1
:1056EC0000B2704798260020C42800207C2C002093
:1056FC0038280020EC2C002080B5010018BF804712
:10570C0001BD134800F110010222002340F8043BB4
:10571C0040F8043B41F8043B41F8043B521EF5D1E0
:10572C00704710B50A4C2068A168084305D0094899
:10573C00016808001CBF002088476068E1680843C6
:10574C0005D00448016808001CBF0120884710BD23
:10575C00A02C0020FC2C00202DE9F041069C079D7C
:10576C00CF4E3778DFF83CC30CEBC70C8CF803300A
:10577C0000238CF80430CC4B93F800E08CF807E055
:10578C009CF8048062F3C5088CF804808CF8050042
:10579C008CF80610C54800EB8E00690181700EF183
:1057AC00010018709CF8040064F301008CF80400EC
:1057BC0040F080008CF80400781C3070BDE8F0815B
:1057CC0038B504460846154600F036F9B748B0F926
:1057DC0020100A46B0F922309342B8BF1A46B0F9ED
:1057EC0024009042B8BF024659184018694209B2C9
:1057FC0000B2814206DBAB4901EBC4010B7943F0EB
:10580C0004030B71A2EB8201081800B232BD002315
:10581C00521C49B94FF6FF73D2B20AB14FF6FF735F
:10582C0098B27047521E40005FEA004C02D4D2B2CC
:10583C00002AF7D15FEA014C12D5D2B2002AEFD080
:10584C005FEA034CEAD45B00521E80B289B28842F4
:10585C0024BF401A5B1C4908D2B2002AF0D1DFE702
:10586C00521C49005FEA014CFAD5E6E72DE9F84FE6
:10587C0000268C4901EBC00999F807A0DFF82CB27F
:10588C000BEB8A07B878400900F1010899F805007C
:10589C0000F0D2F8BBF92420BBF92210BBF9204050
:1058AC008C420BDB914204DB4FF4805508461346C7
:1058BC000BE0002520460B46144606E0A242F3DB23
:1058CC004FF40055104623460C460C222118A1EB30
:1058DC00430189B2C01A80B2FFF799FF401985B213
:1058EC0042F6FF70ADF800004FF4405099F8049068
:1058FC0009F0C001802916D1A5F2672042F6323199
:10590C00884228BF012608D240F23370854223BF5B
:10591C0040F23270281A85B2002542F29B10ADF885
:10592C000000002E7AD14FF480745FFA88F2082AB6
:10593C0005D2C2F10801C9B26408491EFCD1214646
:10594C004E1E052A38BF490002D3072A28BF490832
:10595C000022FFF75CFF09F0C001402916D13BF88B
:10596C002A10B1F5C05F08D3A1F5C05189B28D42A0
:10597C000CDA05F540518DB208E001F5C05292B237
:10598C00AA42BCBF01F540512BF82A10B978CA07BE
:10599C0005D501F0FE00B8700021002004E0890755
:1059AC0046BF0146002000213BF82A2051188D42A9
:1059BC00A4BFB87800F0FD0005DA4019824205DB7F
:1059CC00B87840F00200B8702BF82A503BF82A0047
:1059DC00B0F5405F24BFA0F540502BF82A00002200
:1059EC002146BDF80000FFF712FF002201463BF8EC
:1059FC002A00FFF70CFF0146F0B2884238BF01467F
:105A0C002B48504490F88420CBB29A4206D080F8B0
:105A1C0084102848018841F004010180BDE8F18F11
:105A2C00204901EBC000C079204901EB800081784E
:105A3C0041F0010181707047F8B504461C4E06EB2D
:105A4C00440505F240070C22B5F840107888FFF7A2
:105A5C00DEFE06EB44060C2201467088FFF7D7FEEB
:105A6C00ADF800000C22B5F84010B888FFF7CFFE57
:105A7C0001460C22B088FFF7CAFE0646ADF802605C
:105A8C000A4F2046FFF724FE3884B5F84000BDF9D4
:105A9C000010411A7984801BB884F1BD000000000D
:105AAC007C2C0020982600201C2F0020582B002036
:105ABC0038280020C4280020A448A54908600420E8
:105ACC00A44908604FF48070A3490860A348A44916
