:020000040008F2
:10000000B01300202D5F0800435F0800675308000D
:100010009727080073280800A34408000000000088
:100020000000000000000000000000000F56080063
:100030000F57080000000000CF5808009B5308002D
:100040004B5908007F5908009B5908002F5A080097
:10005000D75D0800FB5D0800455F0800475F0800AA
:10006000753E0800495F0800D75308002B5408006C
:100070004B5F0800933E080085320800AF3208004D
:100080004D5F08004F5F080063480800515F08009B
:10009000535F0800555F0800575F0800A556080029
:1000A000595F08005B5F0800675508005D5F080046
:0C00B0005F5F0800615F0800415F08000E
:1000BC004FF4E07210440268914203D343681A442F
:1000CC00914202D380680028F5D17047DFF85C07B5
:1000DC00016891B94FF4803181604FF480514160D7
:1000EC004FF0FF31C16001610421DFF84427416109
:1000FC00C2F8BC11DFF83C1701600120704701F118
:10010C00080313F0070305D001F10803C3F108033A
:10011C0003F007031944D21A8161C26042F0010353
:10012C004B60114428234B60DFF800170969C1614B
:10013C0070472DE9F84F064601F1080010F0070052
:10014C0008BF884607D001F10800C0F1080000F094
:10015C00070001EB000802F1080010F0070006D0C0
:10016C0002F10800C0F1080000F007000244154637
:10017C00A5EB0800A0EB030908EB030B43F003000D
:10018C00C8F80400AB4528BF01F00CFA2879C00769
:10019C0058BF01F007FAB9F1100F38BF01F002FA9D
:1001AC00B069854209D1F0684844F060C6F818B0CF
:1001BC0040F00100CBF8040070E1706985420BD16E
:1001CC00B0684844B060C6F814B040F00101CBF8F8
:1001DC0004104BF8000061E1686800F0030101298C
:1001EC0040F0AF80C008C0000190C00820283BD26E
:1001FC00D5F808A0EF680090BD4208BF01F0D2F915
:10020C00554508BF01F0CEF968680099C008C000D8
:10021C00B0EBC10F18BF01F0C5F9009806EBC00098
:10022C0000F128018A4508D031698A45C0F08480E4
:10023C00DAF80C10A94240F07F80574506D1009A9D
:10024C003068012191408843306077E02830874244
:10025C0005D0306987426FD3B868A8426CD1CAF810
:10026C000C70C7F808A069E0EF68D5F818A0AF4289
:10027C000CD0A8683169884223D3C168A94204BF55
:10028C00B968A9421DD1C760B8601CE005F1140023
:10029C00076837B905F110000768A7B101E00846F7
:1002AC00076807F114010A68002A02BF07F1100160
:1002BC000A68002AF3D13169884202D30021016017
:1002CC0001E001F06FF9BAF1000F37D0E86906EBE5
:1002DC0080004FF49871084401688D4208D1076082
:1002EC00A7B9EA697068012191408843706025E0E4
:1002FC003069824508D3DAF81000A84214BFCAF856
:10030C001470CAF8107001E001F04CF9B7B1306903
:10031C00874211D3C7F818A0296929B1814226BF99
:10032C0039618F6101F03EF9686938B131698842F1
:10033C0002D37861876101E001F034F9019805443A
:10034C00814468684008400068604FEAD90549F06C
:10035C000100CBF804004BF80990202D23D206EBBA
:10036C00C50000F12807BA46B9F1100F38BF01F0EB
:10037C0019F9306820FA05F1C90704D40121A94004
:10038C000843306006E0B868316988422CBF824669
:10039C0001F008F9C7F808B0CAF80CB0CBF808A0FF
:1003AC00CBF80C707AE05FEA192108BF002023D04B
:1003BC00B1F5803F28BF1F201ED2A1F58070000C24
:1003CC0000F008008140A1F58052120C02F00402EA
:1003DC009140A1F580431B0CC0F10E0003F0020309
:1003EC00801AC01A994000EBD130C11D29FA01F2D4
:1003FC0002F0010101EB400006EB80014FF4987212
:10040C001144CBF81C000022CBF81420CBF81020A0
:10041C00726822FA00F3DB0707D4012303FA00F019
:10042C0010437060C1F800B01DE009681F281DBFA3
:10043C004008C0F1190009FA00F0484600E01146E6
:10044C004A68D208D2004A4514D0C20F01EB82028E
:10045C0002F1100340001A68002AF0D1306983427F
:10046C001AD3C3F800B0CBF81810CBF80CB0CBF8FB
:10047C0008B013E032698868914228BF90420BD3D0
:10048C00C0F80CB0C1F808B0CBF80800CBF80C10D1
:10049C000020CBF8180001E001F084F808F1080006
:1004AC00BDE8E68F2DE9FA4D0546DFF880030068BC
:1004BC0082B008B9FFF70AFEDFF870030299806872
:1004CC0041182F31401E21EA00000299814280F030
:1004DC00A9814FF4D8716E18B16839B1326880189F
:1004EC00824280F09F818142C0F09C8101F05EF8D5
:1004FC0000281EBF0446D0F8008014F1010F00F054
:10050C0091813068716840448142306038BF014647
:10051C007160A86980BB286908B1844200D22C6143
:10052C000020F0613461C6F8148005F12801BF4841
:10053C00006868624FF0FF3028620020C960896053
:10054C0001F108024A610A61801C10312028F5D3A0
:10055C00B748854203D1A8F1280221462AE055F874
:10056C00040CC00805EBC000A0F1080104EB080066
:10057C00401AA0F128021DE04FF4E070291808463B
:10058C0000E08068D0B1026843681A449442F8D104
:10059C00027B120712D4AA6903689A420ED34768E9
:1005AC003B449A420AD208EB07014160E868A9690A
:1005BC0008EB00022846FFF7A2FD1DE128698442E2
:1005CC00084638BF2C6104EB080100E0806880B15C
:1005DC0002688A42FAD1017B09070AD40460416897
:1005EC00414441602146029B284604B0BDE8F04DD1
:1005FC009FE5AF6939462846FFF75AFD4FF0000BCF
:10060C000168406808440190273810F007010199EF
:10061C000EBF0020C0F1080000F0070008442F387E
:10062C0007F11001884234BF00970090009804F144
:10063C00080100F1180A11F00701A8F1280005D0F3
:10064C0004F10801C1F1080101F00701401A21442D
:10065C00A961E86040F001024A6008442822426027
:10066C0072480069E8610098083010F0070018BF64
:10067C0000F098FF00991B2048604FF4E07129446A
:10068C00B1E80C5000980830A0E80C503461C6F862
:10069C001480C6F81CB000980830B061019801E0D5
:1006AC000AF1040A0721CAF804100BF1010B0AF134
:1006BC0008018142F4D3BBF1020FB8BF00F072FF06
:1006CC000098B84200F09880C01B3918C4084A68DA
:1006DC00520852004A6040F0010179603850202CD9
:1006EC0020D205EBC40101F12806B046102838BF12
:1006FC0000F058FF286820FA04F1C90704D401213E
:10070C00A1400843286006E0B068296988422CBFE4
:10071C00804600F047FFB760C8F80C70C7F8088037
:10072C00FE6069E0010A23D0B1F5803F28BF1F218C
:10073C001ED2A1F58072120C02F008029140A1F5B4
:10074C0080531B0C03F004039940A1F58044240C46
:10075C00C2F10E0204F00204D21A121BA14002EBE9
:10076C00D131CA1D20FA02F303F0010202EB410160
:10077C0005EB81024FF498731A44F96100237B61F5
:10078C003B616B6823FA01F4E40705D4012088402F
:10079C001843686017601CE012681F291DBF4908C8
:1007AC00C1F1190100FA01F1014600E01A46536843
:1007BC00DB08DB00834210D0CB0F02EB830303F189
:1007CC00100449002368002BF0D12869844211D30E
:1007DC002760BA61FF60BF600EE0296990688A42A9
:1007EC0028BF884206D3C7609760B860FA600020C3
:1007FC00B86101E000F0D6FEE8680299814211D29E
:10080C00401AE860A969029A0A44AA6140F0010002
:10081C005060029840F00300486004B001F10800F9
:10082C00BDE8F08D002004B0BDE8F08DE42600207A
:10083C00B01F00206859883C2DE9F84F044600266B
:10084C0089465FEA1920C9F1000B08BF002123D0AB
:10085C00B0F5803F28BF1F211ED2A0F58071090C76
:10086C0001F008018840A0F58052120C02F004023D
:10087C009040A0F580431B0CC1F10E0103F0020364
:10088C00891AC91A984001EBD030C11D29FA01F21E
:10089C0002F0010101EB400104EB8100D0F83001C2
:1008AC0018B31F290FBF4A464A08C2F1190209FAA8
:1008BC0002F2002300E052004568ED08ED00A5EBC4
:1008CC0009055D4503D25FEA050B06460BD0456969
:1008DC00D70F00EB8700002D00691CBF85422B460B
:1008EC000028E8D11846B8BBC6BB012088404000A0
:1008FC00414208436168084000F05D814142084074
:10090C00401E010B01F01001C840420902F0080220
:10091C00D040830803F00403D840450805F00205D5
:10092C005118E8405918C0F3400729443944F8409D
:10093C00401804EB8000D0F830010DE00846416807
:10094C00C908C900A1EB090159453CBF8B460646B5
:10095C0001690029F2D140690028F0D1002E00F085
:10096C002A81A068A0EB0900834580F024812069CE
:10097C008642C0F01E817068C00809EB0B08C000ED
:10098C00404518BF00F00EFE06EB0905AE4280F0A4
:10099C001081F768D6F818A0B7420CD0B06821695E
:1009AC00884223D3C168B14204BFB968B1421DD19A
:1009BC00C760B8601CE006F11400076837B906F18F
:1009CC0010000768A7B101E00846076807F1140199
:1009DC000A68002A02BF07F110010A68002AF3D145
:1009EC002169884202D30021016001E000F0DAFDA8
:1009FC00BAF1000F39D0F06904EB80004FF4987114
:100A0C00084401688E4209D10760380014D1F2699C
:100A1C006068012191408843606026E0206982452E
:100A2C0008D3DAF81000B04214BFCAF81470CAF830
:100A3C00107001E000F0B6FDBFB12069874212D3FF
:100A4C00C7F818A0306930B12169884226BF3861D7
:100A5C00876100F0A7FD706938B12169884202D323
:100A6C007861876101E000F09DFDBBF1100F09D2A8
:100A7C0048F00300706006EB0800416841F001018A
:100A8C00416095E049F0030070604BF00100686034
:100A9C004FEADB0045F80BB020281DD204EBC00157
:100AAC0001F12807216821FA00F2D207BB4605D4D0
:100ABC00012202FA00F00843206006E0B8682169C0
:100ACC0088422CBF834600F06DFDBD60CBF80C5006
:100ADC00C5F808B0EF606BE05FEA1B2023D0B0F5DF
:100AEC00803F28BF1F201ED2A0F58071090C01F099
:100AFC0008018840A0F58052120C02F004029040CC
:100B0C00A0F580431B0CC1F10E0103F00203891AFE
:100B1C00C91A984001EBD030C11D2BFA01F202F03A
:100B2C00010101EB400004EB80014FF49872114479
:100B3C00E86100226A612A61626822FA00F3DB072D
:100B4C0006D4012303FA00F0104360600D601CE032
:100B5C0009681F281DBF4008C0F119000BFA00F0EE
:100B6C00584600E011464A68D208D2005A4510D0C7
:100B7C00C20F01EB820202F1100340001A68002A36
:100B8C00F0D12069834211D31D60A961ED60AD6085
:100B9C000EE022698868914228BF904206D3C56056
:100BAC008D60A860E9600020A86101E000F0FAFC0B
:100BBC0008E100F0F7FC02E12DE9F84F0446884605
:100BCC00606841420840401E010B01F01001C84012
:100BDC00420902F00802D040830803F00403D84015
:100BEC00450805F002055118E8405918C0F34006B5
:100BFC0029447118F040401804EB8000D0F8300103
:100C0C004168C908C9000646A1EB080A09E0084674
:100C1C004168C908C900A1EB080151453CBF8A468F
:100C2C00064601690029F2D140690028F0D12069FB
:100C3C008642C0F0C2807068C00808EB0A09C00088
:100C4C00484518BF00F0AEFC06EB080B5E4580F083
:100C5C00B480F768B569B7420CD0B0682169884296
:100C6C0023D3C168B14204BFB968B1421DD1C7607A
:100C7C00B8601CE006F11400076837B906F11000E3
:100C8C000768A7B101E00846076807F114010A6874
:100C9C00002A02BF07F110010A68002AF3D121696A
:100CAC00884202D30021016001E000F07BFC002DA2
:100CBC0035D0F06904EB80004FF49871084401685A
:100CCC008E4209D10760380011D1F26960680121A8
:100CDC0091408843606022E02069854205D32869F1
:100CEC00B04214BF6F612F6101E000F05BFCB7B143
:100CFC002069874211D3BD61306930B121698842C6
:100D0C0026BF3861876100F04DFC706938B12169EC
:100D1C00884202D37861876101E000F043FCBAF1AC
:100D2C00100F09D249F00300706006EB090041680E
:100D3C0041F0010141603FE048F0030070604AF06F
:100D4C000100CBF804004BF80AA0D4F808804FEA55
:100D5C00D805202D28BF00F025FCB8F1000F27D0B6
:100D6C00D4F81490009504EBC50000F128052F462B
:100D7C00B8F1100F38BF00F015FC2068009920FA6C
:100D8C0001F2D10705D4009A01219140084320605B
:100D9C0006E0A868216988422CBF074600F002FCD7
:100DAC00C5F80890C7F80C90C9F80870C9F80C5031
:100DBC00C4F808A0C4F814B004E000F0F3FB002061
:100DCC00BDE8F28F06F10800BDE8F28F2DE9F04F77
:100DDC0083B00546C046C046F52DDFF8C04780F00D
:100DEC0002810B2D31BF102705F10B00C708FF0046
:100DFC002068FE08F04010F0030F42D0C04300F012
:100E0C000100861904EBC60000F12808F700D8F899
:100E1C0008506868C008C000B84218BF00F0C2FB98
:100E2C00D5F80890454508BF00F0BCFB4D4508BF00
:100E3C0000F0B8FB6868C008C000B84218BF00F0EA
:100E4C00B1FBC84505D120680121B1408843206021
:100E5C000DE02069814508D3D9F80C00A84204D1D3
:100E6C00C8F80890C9F80C8001E000F09BFB47F033
:100E7C0003006860E8190835416841F001014160E0
:100E8C00F9E0A168B94280F0C080002800F0A2808F
:100E9C00012505FA06F149004A42B04011430840C9
:100EAC0041420840401E010B01F01001C8404209AC
:100EBC0002F00802D040830803F00403D84046082F
:100ECC0006F002065118F0405918C0F3400871188A
:100EDC00414420FA08F000EB010804EBC80000F1D3
:100EEC0028094FEAC80AD9F808607068C008C00021
:100EFC00504518BF00F056FBD6F808B04E4508BF59
:100F0C0000F050FB5E4508BF00F04CFB7068C00859
:100F1C00C000504518BF00F045FBD94505D12068ED
:100F2C0005FA08F1884320600DE02069834508D359
:100F3C00DBF80C00B04204D1C9F808B0CBF80C9027
:100F4C0001E000F02FFB47F003007060AAEB0708EC
:100F5C00F019019048F0010001994860019840F89F
:100F6C000880A7684FEAD70ABAF1200F28BF00F013
:100F7C0019FB47B3CDF800A004EBCA00D4F81490C9
:100F8C0000F1280AD346102F38BF00F00BFB206865
:100F9C00009920FA01F2D10705D4009905FA01F164
:100FAC000843206007E0DAF80800216988422CBF6A
:100FBC00834600F0F7FACAF80890CBF80C90C9F801
:100FCC0008B0C9F80CA0C4F8088006F1080501980F
:100FDC00606150E06068C0B339462046FFF7ECFD15
:100FEC00050012D047E015F1400F28BF4FF0FF3736
:100FFC000BD205F10B00C7086068FF0028B1394619
:10100C002046FFF719FC050035D1A068B8421CD367
:10101C00C11B626910290AD3D0196061A16041F02B
:10102C0001034360415047F0030050600AE0002187
:10103C00A160616140F0030151601044416841F0CE
:10104C000101416002F1080515E0E06887420DD20C
:10105C00C01BA169E060CA19A26140F00100506098
:10106C0001F1080547F00300486004E039462046CA
:10107C00FFF718FA0546C046C046284603B0BDE83F
:10108C00F08F00B970472DE9F047A0F10804C04675
:10109C00C046DFF8085528698442C0F0798261683F
:1010AC0001F00302012A00F07382CA084FEAC20859
:1010BC00CA0704EB080937D4226811F0030F00F0BB
:1010CC00698251420C4484429044C0F06182696947
:1010DC008C4200F0D980D608202E70D2D4F80CA007
:1010EC00A768544508BF00F05DFABC4208BF00F089
:1010FC0059FA6068C008C000B0EBC60F18BF00F00A
:10110C0051FA05EBC60000F128018F4205D0296980
:10111C008F4251D3F968A1424ED1BA453DD12868CE
:10112C000121B140884328604C4580F03182D9F8C8
:10113C000400C10740F12C82810700F17D81A9696F
:10114C00894540F0B680E868AC614044E86040F006
:10115C000101616069698C4202D100216961A96059
:10116C00E969814280F01682DFF83404006808B91E
:10117C00FEF7ACFFA969002900F00C82E868292869
:10118C0024BF2846FEF794FFE869E968884280F09E
:10119C0001824FF0FF30E861FCE12830824506D037
:1011AC002869824508D3DAF80800A04204D1C7F8B0
:1011BC000CA0CAF80870B7E700F0F4F9B4E7E768D8
:1011CC00A669A7420BD0A168814222D3C868A0426D
:1011DC0004BFB868A0421CD1CF60B9601BE004F119
:1011EC0014010F6837B904F110010F689FB101E0C9
:1011FC0011460F6807F114021368002B02BF07F1A8
:10120C0010021368002BF3D1814202D30020086036
:10121C0001E000F0C7F9002E86D0E06905EB8000F4
:10122C004FF49871084401688C4209D1076038006A
:10123C0011D1E2696868012191408843686073E7C5
:10124C002869864205D33069A04214BF77613761A3
:10125C0001E000F0A7F9002F3FF466AF2869874240
:10126C00AAD3BE61216929B1814226BF39618F6140
:10127C0000F098F9606900283FF456AF296988425C
:10128C009AD3786187614FE799F8040000F0030066
:10129C0003287FF449AFC5F80880D9F8040040084A
:1012AC004000C9F8040048F00100606044F8088070
:1012BC0070E16969894508D1A8686C614044A860EF
:1012CC0040F001016160205064E1C008C0004FEAA9
:1012DC00D00ABAF1200F804437D2D9F80C70D9F863
:1012EC000860B94508BF00F05DF9B14508BF00F0D2
:1012FC0059F9D9F80400C008C000B0EBCA0F18BFE8
:10130C0000F050F905EBCA0000F128018E4207D01D
:10131C0029698E42C0F08380F168494540F07F8096
:10132C00B74206D12868012101FA0AF188432860E6
:10133C0077E02830874205D0286987426FD3B86898
:10134C0048456CD1F760BE606BE0D9F80C70D9F8E9
:10135C0018604F450DD0D9F808002969884223D36D
:10136C00C168494504BFB96849451DD1C760B8601B
:10137C001CE009F11400076837B909F1100007687F
:10138C00A7B101E00846076807F114010A68002AB2
:10139C0002BF07F110010A68002AF3D129698842BB
:1013AC0002D30021016001E000F0FCF8002E38D0DF
:1013BC00D9F81C0005EB80004FF4987108440168C3
:1013CC0089450AD10760380012D1D9F81C20686809
:1013DC00012191408843686023E02869864205D347
:1013EC003069484514BF7761376101E000F0DAF8E5
:1013FC00BFB12869874212D3BE61D9F8101029B148
:10140C00814226BF39618F6100F0CCF8D9F8140005
:10141C0038B12969884202D37861876101E000F014
:10142C00C1F848F00100606044F8088068698442A3
:10143C000BD1C5F80880ADE040084000C9F80400A5
:10144C0048F00100606044F808804FEAD807202F6C
:10145C0022D205EBC70000F128094E46B8F1100F57
:10146C0038BF00F09FF8286820FA07F1C90704D4A8
:10147C000121B9400843286007E0D9F80800296920
:10148C0088422CBF064600F08DF8C9F80840F4607D
:10149C00A660C4F80C907DE05FEA182008BF00211C
:1014AC0023D0B0F5803F28BF1F211ED2A0F580713C
:1014BC00090C01F008018840A0F58052120C02F0D2
:1014CC0004029040A0F580431B0CC1F10E0103F007
:1014DC000203891AC91A984001EBD030C11D28FAB1
:1014EC0001F202F0010101EB400105EB81004FF428
:1014FC0098721044002262612261E1616A6822FAEA
:10150C0001F3DB0706D4012303FA01F111436960EF
:10151C0004601CE000681F291DBF4908C1F11901B6
:10152C0008FA01F1414600E010464268D208D200A8
:10153C00424510D0CA0F00EB820202F110034900A1
:10154C001A68002AF0D129698B4211D31C60A06162
:10155C00E460A4600EE02A698168904228BF914241
:10156C0006D3CC608460E060A1600020A06101E043
:10157C0000F018F8286A401E28620BD1D5F8C80173
:10158C0000E080680028FCD14FF0FF30286201E0B9
:10159C0000F008F8C046C046BDE8F087B01F002038
:1015AC00E4260020012000F017B80A0D074908684E
:1015BC0008B1002070470648C008C0000860054903
:1015CC00C908C900091A0160704700BF7C280020B7
:1015DC00070008200040082080B5C046C046024ADB
:1015EC0011001820ABBEFBE72600020010B582B03C
:1015FC000024DFF8DC09DFF8DC190860DFF8D0091B
:10160C00DFF8D4190860DFF8C809DFF8D0190860D2
:10161C000020DFF8CC190870DFF8C80900680090CA
:10162C005FF40010DFF8C01908605FF40000DFF809
:10163C00BC1908605FF08070DFF8B0190860642195
:10164C00684601F0A3F80028F9D05FF40010DFF829
:10165C009C190860DFF88C09006800904FF47A71CF
:10166C00684601F093F80028F8D0DFF87809006894
:10167C000090DFF87C090068C00709D4E4B2002CA4
:10168C0006D14FF47A71684601F080F80400F0E757
:10169C00E4B2002C13D100F028F800F0BDFCDFF808
:1016AC00540900F080FCDFF84C190871DFF844098C
:1016BC0000F02BFB4FF47A713E2000F0DEFB13BDE3
:1016CC000020C82801D2401CFBE75FF08070DFF8D7
:1016DC00181908600020142801D2401CFBE75FF0A9
:1016EC008070DFF8081908607047F0B58BB006A859
:1016FC00DFF80419112201F07BF86846DFF8FC18BA
:10170C00182201F085F80027DFF8E4080068C0070C
:10171C0040F10C81DFF8E808006806000020DFF8D3
:10172C00E4180860DFF8E0080068C00009D5DFF8AD
:10173C00D808006830F08050DFF8CC180860761EAE
:10174C0015E0FFF7BDFFDFF8A808006840070ED4CE
:10175C00DFF8B008006842F21071884207D2DFF857
:10176C00A4080068401CDFF89C180860EBE7DFF861
:10177C009408006842F21171884205D300F0D8F841
:10178C0006A801F071F8D1E0DFF86408006830F0C9
:10179C000400DFF85C180860DFF83C08006800788B
:1017AC00A42840F08780DFF86008006850F0806063
:1017BC00DFF854180860FFF783FFDFF8340800687F
:1017CC00C0070ED5DFF83C08006842F21071884261
:1017DC0007D2DFF830080068401CDFF828180860D2
:1017EC00EBE7DFF82408006830F08060DFF81818A9
:1017FC000860DFF8FC07006830F00400DFF8F01731
:10180C000860DFF80008006842F21071884247D285
:10181C00DFF8EC070068861BDFF8BC07006800786F
:10182C00040000F09BF8DFF8B00700680078801C1B
:10183C000500EDB2A81C864207D0DFF8CC07006883
:10184C0050F00100DFF8C0170860DFF88C07006863
:10185C000078444000F082F86D1EEDB2002DF4D1FA
:10186C002000DFF8741709680978C0B288420ED1DD
:10187C00DFF86C070078401CDFF864170870DFF89D
:10188C008C070068401CDFF8841708601BE0DFF849
:10189C0048070068DFF84417086000F073F812E09E
:1018AC00DFF86C070068401CDFF864170860012043
:1018BC00070008E0DFF85C070068401CDFF85417ED
:1018CC00086001200700FFB2002F2DD0684600F001
:1018DC00CBFFDFF81C070068C00710D5DFF8240722
:1018EC00006842F21071884209D2DFF818070068CC
:1018FC00401CDFF810170860FFF7E2FEE9E7DFF89D
:10190C00D4060068DFF8D0160860DFF8C806006857
:10191C00DFF8C8160860DFF8D806006830F006005B
:10192C00DFF8CC16086001E000F018F80BB0F0BD41
:10193C0072B6DFF89C06DFF89C160860DFF890069C
:10194C00DFF894160860DFF88806DFF89016086058
:10195C000020DFF88C16087062B67047DFF8780646
:10196C000068401CDFF870160860DFF86C06006831
:10197C00DFF89C1A884204D1DFF85406DFF85816B9
:10198C0008607047DFF854060068401CDFF84C16FE
:10199C000860DFF848060068DFF8741A884204D142
:1019AC00DFF82C06DFF83416086070472DE9F84F85
:1019BC0004000D0000265FF0000B4FF6FF7AFF20AD
:1019CC008DF80200FF275FF0FF384FF6FF79207883
:1019DC008DF80000A0788DF803009DF80000092810
:1019EC0003D100208DF8010058E09DF8000012286A
:1019FC0003DA9DF80000092807DADFF8340C00F050
:101A0C0033FF00208DF8010048E0E07A0600012049
:101A1C008DF80100300621D55FFA8BFB04EB0B002F
:101A2C00007B82461BF1010B5FFA8BFB04EB0B0076
:101A3C00007B5AEA002A1BF1010B5FFA8BFB04EBCB
:101A4C000B00007B8DF802001BF1010B5FFA8BFB86
:101A5C0004EB0B00007B07001BF1010B70060CD58F
:101A6C001BF1010B5FFA8BFB04EB0B0090F90C00E4
:101A7C0080461BF1010B1BF1010BB0060ED55FFA72
:101A8C008BFB04EB0B00007B81461BF1010B5FFA17
:101A9C008BFB04EB0B00007B59EA00296E709DF860
:101AAC0003002870A5F802A09DF8020028716F7140
:101ABC0085F806809DF80100BDE8F28F38B5DFF897
:101ACC00C8090068C00109D5DFF8880A00F0CCFE0F
:101ADC00DFF8AC0ADFF85C1B08600FE15FF4001064
:101AEC00DFF8741A0860DFF89C0A00F0BDFE0020D5
:101AFC00DFF8441B08600020DFF8D01B08600020D2
:101B0C00C0B208287CDADFF8341BC0B2142202FB06
:101B1C0000F28854FF21DFF8242BC0B2142303FBFE
:101B2C0000F31A445170FF21DFF8102BC0B21423BC
:101B3C0003FB00F31A449170FF21DFF8002BC0B2B5
:101B4C00142303FB00F31A44D172FF21DFF8EC2AB3
:101B5C00C0B2142303FB00F31A441173FF21DFF806
:101B6C00DC2AC0B2142303FB00F31A445173FF2187
:101B7C00DFF8C82AC0B2142303FB00F31A44917394
:101B8C00FF21DFF8B82AC0B2142303FB00F31A4478
:101B9C00D173FF21DFF8A42AC0B2142303FB00F396
:101BAC001A441174FF21DFF8942AC0B2142303FBEA
:101BBC0000F31A445174FF21DFF8802AC0B21423B9
:101BCC0003FB00F31A4491740021DFF8702AC0B2B1
:101BDC00142303FB00F31A44D1740021C9B2082961
:101BEC000CDADFF8582AC0B2142303FB00F31A44B2
:101BFC00C9B20A440023D370491CEFE7401C7FE7AD
:101C0C000420DFF83C1A0870DFF8380ADFF8301AC5
:101C1C0048605FF48000DFF8281A88600120DFF844
:101C2C00201A08730320DFF8181A48730FF22530B6
:101C3C00DFF80C1A08610FF23530DFF8041A48612E
:101C4C00DFF88C03DFF8F8198861DFF88803DFF818
:101C5C00F019C8614FF48070DFF8E4190884DFF8DC
:101C6C00E00901F0ADF9DFF8681A08600020DFF830
:101C7C0080130860FFF7BAFCDFF8580A0078C0063A
:101C8C001BD5DFF8540A00F0EFFDDFF8BC0900F0BB
:101C9C00EBFDDFF8480A00F0E7FD00F0F7FDDFF898
:101CAC006803006830F48030DFF85C130860DFF8FC
:101CBC009C09DFF88019086020E0DFF8940900F037
:101CCC00D3FD5FF0307004005FF0F0700500DFF8BA
:101CDC00100A0460DFF80C0A0460DFF80C0A0560D7
:101CEC00DFF860090560DFF8040A0460DFF8000A19
:101CFC000560DFF88C08DFF83C19086031BD80B551
:101D0C00DFF830090068804701BDF0B599B00400D8
:101D1C00DFF8E009076810A8DFF8DC19212200F0D1
:101D2C0067FD0AA8DFF8D419152200F061FD05A89B
:101D3C00DFF8CC19122200F05BFD6846DFF8C419FD
:101D4C00112200F055FDDFF8C002006810F0406F62
:101D5C0004D010A800F088FD00208CE00020DFF8F3
:101D6C00A41208605FF40000DFF87C120860DFF852
:101D7C0080020068C0070ED4DFF88802006842F2C7
:101D8C001071884207D2DFF87C020068401CDFF833
:101D9C0074120860EBE7DFF86C02006842F2117114
:101DAC00884208D35FF40000904908600AA800F04C
:101DBC005BFD00205FE0FFF783FC8D480068400767
:101DCC000BD49048006842F21071884205D28D48BD
:101DDC000068401C8B490860EFE75FF40000834902
:101DEC0008608848006842F21171884204D30AA83E
:101DFC0000F03AFD00203EE07748006800780500CE
:101E0C00EDB2A42D07D18048006850F080507E4977
:101E1C00086000202FE0FFF7A1FDFFF7B3FD744829
:101E2C00006830F0040072490860EDB2A52D1ED197
:101E3C007548006850F00060734908602078C01C39
:101E4C00060022003100DFF88808006801F05CF918
:101E5C00DFF8B4180860DFF8B0080068002801D07B
:101E6C00012008E005A800F0FFFC002003E0684614
:101E7C0000F0FAFC002019B0F0BDF0B589B00400F8
:101E8C000D0000260127DFF86C080068009001A8FF
:101E9C00DFF878181A2200F0ABFC5248006800906A
:101EAC0053480068C00709D5F6B2002E06D14FF48E
:101EBC007A71684600F06AFC0600F1E7F6B2002E73
:101ECC001CD15148006830F000604F49086000F0A8
:101EDC0045FB0020DFF8301808604248006800908D
:101EEC0043480068C00709D4F6B2002E06D14FF45F
:101EFC007A71684600F04AFC0600F1E7F6B2002E53
:101F0C001BD1FFF7F2FB36480078002815D0DFF81C
:101F1C0000080068807840280FD1DFF8F4070068CB
:101F2C0000792100C9B2884207D1DFF8E4070068C4
:101F3C004079002801D10020070000F06DF8F6B2BE
:101F4C00002E02D001A800F08FFC3800C0B209B0FE
:101F5C00F0BD000080B5DFF8BC070068401CDFF85E
:101F6C00B4170860FFF7ACFB01BD000080B5244836
:101F7C000068401C2249086016480068401C15493E
:101F8C00086014480068DFF88814884203D1DFF831
:101F9C00840410490860DFF880070068400101D50F
:101FAC00FFF78EFB01BD30B401000878821CA52020
:101FBC0000231C001500E4B2EDB2AC4204D20C7844
:101FCC006040491C5B1CF4E7C0B230BC7047000099
:101FDC00882100206C270020702700207427002007
:101FEC0085280020C0270020340E0E40300E0E40F5
:101FFC000C28002010010020745E0800FC5D080015
:10200C00582700204C2700203C2700208427002044
:10201C005C2700206027002070B588B0DFF800072F
:10202C000078002801D10120F0E1DFF8F806006803
:10203C00401CDFF8F0160860DFF8E4060078401E5C
:10204C00DFF8DC160870FFF79DFCDFF8C4060068AB
:10205C0000780400E4B2122C01DB0120D6E100264A
:10206C00F6B2E4B2E01C86420ADADFF8A406006895
:10207C0000786946F6B28855FFF784FC761CEFE7CA
:10208C009DF8020005009DF801003E2800F09C819F
:10209C0040280CD04E2800F07F814F2800F07C8126
:1020AC00522800F090816F2800F0A281A7E19DF8E2
:1020BC000300012800F0E380DFF86C0605709DF842
:1020CC000300DFF8641648709DF80400DFF858161A
:1020DC0088709DF8030041286AD042285DD04B28B7
:1020EC0008D04C2838D05B2840F08380DFF83C06C1
:1020FC0000F0BAFB15F13000DFF834160873DFF886
:10210C00300600F0B1FB9DF80400002823D1DFF865
:10211C002C05EDB2142101FB05F10844C07C50F0F4
:10212C000400DFF81815EDB2142202FB05F211447D
:10213C00C874DFF80805EDB2142101FB05F1084461
:10214C00C07C10F0FD00DFF8F414EDB2142202FB99
:10215C0005F21144C8747CE09DF802003030DFF8C1
:10216C00D4150873DFF8CC0500F07EFB9DF8040055
:10217C00002811D1DFF8C404EDB2142101FB05F1E4
:10218C000844C07C10F0F300DFF8B014EDB2142258
:10219C0002FB05F21144C8745BE09DF8020030307C
:1021AC00DFF894150873DFF8900500F05DFB50E044
:1021BC009DF802003030DFF884150873DFF87C05D9
:1021CC0000F052FB9DF80400002811D1DFF86C04DC
:1021DC00EDB2142101FB05F10844C07C10F0F100B4
:1021EC00DFF85814EDB2142202FB05F21144C87446
:1021FC002FE09DF802003030DFF8441508739DF88D
:10220C000300C0B2000900F0DDFADFF834150876DF
:10221C009DF8030010F00F0000F0D4FADFF8201541
:10222C0048769DF80400C0B2000900F0CBFADFF844
:10223C00101581F824009DF8040010F00F0000F038
:10224C00C1FADFF8FC1481F82500DFF8F40400F083
:10225C000BFB9DF80400002804D1DFF87C0400F08F
:10226C0003FB98E0DFF8DC0400F0FEFADFF8A804CA
:10227C00006850F00200DFF8A01408608BE09DF8B5
:10228C00040000280ED001285CD002280ED00328B0
:10229C0033D005283ED0062850D0072856D0082821
:1022AC0027D068E0002000F0B7F874E0DFF898045D
:1022BC000078401CDFF890140870DFF88C0400786C
:1022CC00002812D1DFF884040078401CDFF87C145D
:1022DC000870DFF878040078002806D1DFF8700465
:1022EC000078401CDFF868140870684600F094F819
:1022FC0051E0684600F090F84DE0D048EDB2142162
:10230C0001FB05F108444078102802D1684600F022
:10231C0083F840E0C948EDB2142101FB05F10844F3
:10232C00C07C50F01000C549EDB2142202FB05F23E
:10233C001144C874684600F06FF82CE0684600F051
:10234C006BF828E0684600F067F824E0DFF8040436
:10235C0000F08AFAB948EDB2142101FB05F10844EA
:10236C00C07C10F0F300B549EDB2142202FB05F26B
:10237C001144C8740FE09DF8040000F095FADFF8E2
:10238C00D80300F071FADFF89003006850F00400F5
:10239C00DFF88413086038E005A96846FFF706FBF0
:1023AC0005AA0DF10301012000F070F8A348EDB26D
:1023BC00142101FB05F108444078002802D10020CB
:1023CC0000F02AF821E020E00020C0B20A2808DA48
:1023DC006946C0B201448978C04AC0B21154401C4D
:1023EC00F3E7BC48006850F01000BA4908600CE0F4
:1023FC00C948006850F48030C749086005E0C648F9
:10240C00006850F00800C4490860002008B070BD96
:10241C0088220020882100201FB50400FF208DF8A1
:10242C000000A0788DF80100E0788DF8020020798A
:10243C008DF80300FF208DF80400C54800788DF856
:10244C000500C24800788DF80600BF4800788DF86A
:10245C0007009DF801008DF80800FF20ADF80A0078
:10246C00FF208DF80C00FF208DF80D005FF0FF3081
:10247C008DF80E00FF208DF8090002AA6946022093
:10248C0000F004F81FBD0000D82700202DE9F04310
:10249C008BB004000D0016005FF000096846AF49D0
:1024AC002B2200F0A5F91C20FEF790FC0700002F52
:1024BC0004D1684600F0D8F9002048E00020C0B2F2
:1024CC00082807DAC0B2295CC0B207EB0002917190
:1024DC00401CF4E7A248006838603C713078B8734F
:1024EC00708838823079B8747079F8747078F873B1
:1024FC00B07938750020B8614F480068002807D1C2
:10250C004D48076085480068401C844908601DE000
:10251C00494800688046D8F81800002804D0D8F83C
:10252C00188019F10109F6E75FFA89F9B9F1200F62
:10253C0007D2C8F8187079480068401C77490860C1
:10254C0004E0684600F090F9002000E001200BB098
:10255C00BDE8F083D0000020100E0E4010B55B4893
:10256C00006800280AD059480068040057480068E1
:10257C008069564908602000FEF783FD10BD0000FD
:10258C00952708009800002070B5012400256248AA
:10259C00006800041CD0734800F066F90026F6B2FF
:1025AC00042E0FDA5C480068204207D06E48EDB26A
:1025BC00142101FB05F1084400F056F964006D1C70
:1025CC00761CECE754480068000C00045249086083
:1025DC00FFF722FD65480068C00704D50FF23900EB
:1025EC001449086016E048480068002812D13748A2
:1025FC00006800280ED035480068001DFFF785FBE9
:10260C00002807D056480068594908600FF2450069
:10261C000849086070BD000080B556480068401C31
:10262C0054490860FFF761F808480249086001BD89
:10263C005C5B0800482700204427002088230020EA
:10264C0010260020000E0E40D85E080095250800CC
:10265C00B000002010B52C48006801F035F90400DA
:10266C00E4B22000001F01282ED8FFF777FF0020CE
:10267C00254908602848006830F000602649086049
:10268C003A480068C0070BD53948006842F210710F
:10269C00884205D236480068401C35490860EFE78F
:1026AC003548006842F21171884209D3334800F072
:1026BC00DBF82E480068C00702D5FFF701F8F8E7F1
:1026CC002F4830490860FFE710BD00007C27002030
:1026DC0068270020DC270020040000202C27002085
:1026EC00040C0E40000C0E40040E0E40140C0E4058
:1026FC00140E0E40C4270020805B0800145E0800F6
:10270C00885E08009C5E080064270020845D080039
:10271C0074270020542700203C2700207827002015
:10272C00852800208827002040270020085F08000B
:10273C00840000206C000020140000202C000020DD
:10274C00440000200C00002088280020872800204E
:10275C0086280020B05E0800085D0800085B0800B1
:10276C00C027002018010020280100200C28002080
:10277C0050270020802700204C27002078010020C3
:10278C0095250800482700207047FEE710B402008A
:10279C00164800681468A04205D3144800681468F1
:1027AC00001B030007E05FF0FF301468001B0F4CA8
:1027BC002468201803008B4201D2002000E0012085
:1027CC0010BC70470100FF20C9B20A2903DA11F1CD
:1027DC003002100008E0C9B20A2905DBC9B2102981
:1027EC0002DA11F157021000C0B27047C027002066
:1027FC0062B38B0708D0521E11F8013B00F8013B65
:10280C0000F024808B07F6D1830740F0208000BFB6
:10281C00103A07D330B4B1E83810103AA0E83810A9
:10282C00F9D230BC530724BFB1E80810A0E8081057
:10283C0044BF51F8043B40F8043BD20724BF31F8A5
:10284C00022B20F8022B44BF0B7803707047083A18
:10285C0007D3B1E80810083A40F8043B40F804CB21
:10286C00F7D25307E4E7FEE770B504002500002615
:10287C002878002802D0761C6D1CF9E72200310064
:10288C00DFF88006006801F03BFA70BD80B5DFF818
:10289C0078060088ADF800006A460221DFF864066D
:1028AC00006801F02DFA01BD2DE9FE43040000255E
:1028BC000026DFF858860020C0B20A2819DAB4FBCB
:1028CC00F8F130316A46C0B211546946C0B2095CA5
:1028DC00302901D001210D00EDB2002D00D0761C65
:1028EC00B4FBF8F108FB11440A21B8FBF1F8401CC9
:1028FC00E2E7EDB2002D01D101200600F6B2300066
:10290C00FEF764FA8146B9F1000F08D10220DFF816
:10291C00001608700FF2B950DFF8F815086009209E
:10292C0007003000C0B2002809D06946C95DC0B2AA
:10293C0009EB000202F8011C7F1E401EF2E74A461A
:10294C00F6B23100DFF8BC05006801F0D9F9484651
:10295C00FEF797FBBDE8F78370B5ACB06846DFF8BF
:10296C00C4151122FFF744FF19A8DFF8BC15482243
:10297C00FFF74EFF0124012505A8DFF8B015502202
:10298C00FFF746FF19A8FFF76FFF0026F6B2082ED7
:10299C0013DADFF89C05006804420BD10020050017
:1029AC0005A8F6B20A2101FB06F10844FFF75CFF0B
:1029BC00FFF76CFF6400761CE8E7EDB2002D02D047
:1029CC006846FFF751FFFFF761FF2CB070BD00B5F3
:1029DC0085B0002080B2802806D20021DFF8542573
:1029EC0080B21154401CF5E70020DFF82C1508705C
:1029FC000020C0B2802806DA0021DFF82025C0B202
:102A0C001154401CF5E7DFF82C05DFF82C15086095
:102A1C00DFF82005DFF824150860DFF82405DFF85F
:102A2C002415086002208DF80000DFF808050190DD
:102A3C00DFF8080502908020ADF802000FF2590073
:102A4C000390684601F0A8F8DFF8B8140860DFF8C6
:102A5C00B4040068002805D10FF27540DFF8B414F7
:102A6C00086010E0DFF8E004FFF7FEFEDFF8C004BA
:102A7C00006850F00400DFF8B81408600FF22D2045
:102A8C00DFF89014086005B000BD80B5DFF8840451
:102A9C000068804701BD0000DFF8A0040068401CFE
:102AAC00DFF898140860DFF894040068DFF89C14D1
:102ABC00884204D1DFF87C04DFF88014086070478A
:102ACC0010B592B00AA8DFF888141922FFF790FE0F
:102ADC003A208DF8020020208DF803000A208DF892
:102AEC0024000D208DF8250000208DF826000AA862
:102AFC00FFF7BAFE0024E4B2082C2CDAE4B20A2C5C
:102B0C0007DBE4B20A2094FBF0F030308DF80000C3
:102B1C0002E030208DF80000E4B20A2094FBF0F1C2
:102B2C0000FB114030308DF801000020C0B220288D
:102B3C000CDADFF82014E4B251F83410C0B2095C9E
:102B4C006A46C0B202441171401CEFE76846FFF7B9
:102B5C008BFE641CCFE7FFF799FE12B010BD10B5C9
:102B6C0084B06846DFF8F0131CC91CC00C390C3853
:102B7C006846FFF779FE1FBD10B584B06846DFF8D4
:102B8C00DC131CC91CC00C390C386846FFF76CFEF2
:102B9C00DFF88C030078C0070CD5DFF884030068DD
:102BAC0040084000DFF878130860DFF8B403FFF743
:102BBC005BFE23E0DFF86803006850F00100DFF8EB
:102BCC0060130860DFF89C03FFF74EFE002001F055
:102BDC0089FA012001F086FA022001F083FA032021
:102BEC0001F080FA042001F07DFA052001F07AFA58
:102BFC00062001F077FA072001F074FA1FBD10B51A
:102C0C000400E4B2572C02D1002001F0CEFAE4B259
:102C1C00502C02D1012001F0C8FAE4B2422C02D1AE
:102C2C00022001F0C2FAE4B2432C02D1032001F0DD
:102C3C00BCFAE4B2472C02D1042001F0B6FAE4B29B
:102C4C00592C02D1052001F0B0FAE4B24F2C02D17C
:102C5C00062001F0AAFAE4B2522C02D1072001F0AE
:102C6C00A4FA10BD00B589B06846DFF8FC12232227
:102C7C00FFF7BEFD6846FFF7F7FDA948007880070F
:102C8C0009D5A748006830F00200A5490860B4488F
:102C9C00FFF7EAFD08E0A248006850F00200A049E6
:102CAC000860B048FFF7E0FD09B000BD38B500245E
:102CBC00A1480068A1490968884200F09A80E4B2F2
:102CCC00002C40F096809C48006800780500EDB21E
:102CDC002800082802D00D2833D03CE0904800781A
:102CEC0040070DD58C480078802826DA8B488A4915
:102CFC000978455488480078401C874908701CE0C6
:102D0C0085480078002809D083480078401E824905
:102D1C00087000208149804A1278885489480068DC
:102D2C008749884209D087480068401E8549086059
:102D3C008E480088401E8D4908808D48FFF794FD11
:102D4C0040E077480078400705D4012004000FF2DA
:102D5C00B5007049086070480078802808DA6F4820
:102D6C006D49097845546C480078401C6A490870D4
:102D7C002900C9B26348006800F0AAFF68480078CF
:102D8C0040071FD46F48006805706E480068401CEF
:102D9C006C49086075480088401C74490880694873
:102DAC000068744988420DD3EDB20D2D0AD06448E9
:102DBC006449086000206D4908806F48FFF754FD96
:102DCC006E49086056480078C00703D52800C0B289
:102DDC00FFF715FF58480068401C574908605648D3
:102DEC0000685A498842FFF463AF52485249086060
:102DFC005EE762480068002803D06048006800F075
:102E0C0063FD31BD70B50124002005004C48EDB2C6
:102E1C00405D5B49EDB2495D884201D00020040061
:102E2C006D1CE4B2002C02D0EDB2042DEEDBE4B24A
:102E3C00002C2ED0002004004148EDB24057303811
:102E4C0006006D1C76B2002E23D476B20A2E20DA40
:102E5C000A2000FB06F04B4908703948EDB2405788
:102E6C00303806006D1C76B2002E12D476B20A2EC3
:102E7C000FDA44480078301842490870414800780D
:102E8C00082806DA2E48EDB2405D0D2801D101204C
:102E9C000400E4B2002C04D00FF21D001D490860A0
:102EAC0005E03948FFF7E0FC38481A490860244827
:102EBC002449086070BD000080B53448154908608D
:102ECC0024483049097800EBC1004068804701BDB7
:102EDC0080B51348006850F00040114908602C4838
:102EEC00FFF7C2FC0A480078FFF7DEFCFFF7CEFCC8
:102EFC0000201E49088012481249086023480549E1
:102F0C00086001BDAC270020B615080000CA9A3B2A
:102F1C008A280020A82700208928002028240020A7
:102F2C00A4270020C45E0800805A0800305A08000C
:102F3C00DC270020A8240020B8270020B42700207C
:102F4C0028250020BC270020F40100202825002083
:102F5C00A05D0800B4010020145F0800205F080089
:102F6C00A003002098030020C45C080080280020E7
:102F7C0038020020682500203C020020B0270020E9
:102F8C005C0200208B28002064020020B92C080071
:102F9C0078020020012110F01F029140DFF8B428C4
:102FAC0040B2430942F823107047012110F01F0270
:102FBC009140DFF8A42840B2430942F8231070472F
:102FCC002DE9F04704002078022804D034D30428DB
:102FDC0021D010D330E0DFF8840805005020060023
:102FEC00DFF87C080700082080467FF00800814647
:102FFC001A20824622E0DFF86C08050050200600FB
:10300C00DFF864080700002080465FF0FF3081463F
:10301C003020824612E0DFF85408050050200600EC
:10302C00DFF84C0807005FF4002080467FF4002096
:10303C0081460020824601E0002063E02869C0023E
:10304C0001D500205EE0DFF82C080068012195F91D
:10305C00282091400843DFF81C18086060686860FD
:10306C00A068A860207B2873607B68732069686106
:10307C006069A861A069E861E0692862208CA88475
:10308C00286950F480102861286806602868476019
:10309C002868C0F808802868C0F80C902868C0F828
:1030AC0020A0687B02281BD1A0692968C1F8000107
:1030BC00A069401C2968C1F8100101202968C1F8D9
:1030CC00040101202968C1F814010020286240F293
:1030DC0001102968C1F820015FF40020296888607C
:1030EC00687B032803D1DFF890072968886095F97D
:1030FC00280040B2FFF759FF95F9280040B2FFF7BE
:10310C0049FF2800BDE8F087F8B504000D00160053
:10311C003200290014F12C0000F0F2FB0700002F04
:10312C0001D1002007E0DFF858070068002801D51E
:10313C0000F07EF83800F2BD80B5DFF84807DFF804
:10314C001C1708600020DFF8141748600020DFF817
:10315C000C17C8620020DFF80417C8610020DFF8E4
:10316C00FC1688840020DFF8F41608620020DFF8D3
:10317C00EC1608610D20DFF8E41681F82800DFF862
:10318C000807DFF8E01608600020DFF8D816486062
:10319C000020DFF8D016C8620020DFF8C816C8611E
:1031AC000020DFF8C01688840020DFF8B81608620B
:1031BC000020DFF8B01608610E20DFF8A81681F8A1
:1031CC002800DFF8C806DFF8A41608600020DFF836
:1031DC009C1648600020DFF89416C8620020DFF8C7
:1031EC008C16C8610020DFF8841688840020DFF874
:1031FC007C1608620020DFF8741608610F20DFF8D7
:10320C006C1681F82800DFF85406DFF88416086085
:10321C000FF25140DFF864160860DFF87806FFF70C
:10322C0023FB01BD80B5DFF854060068804701BD63
:10323C0080B5DFF86406006850F00100DFF858161E
:10324C000860DFF81806DFF848160860DFF8480653
:10325C000078C0070FD5DFF8240600688047DFF838
:10326C003C060068DFF8381608600121DFF83006EC
:10327C00FFF78CFAEAE701BD80B5DFF8E805DFF867
:10328C0024160860DFF82406DFF81C160860DFF847
:10329C0020060068401CDFF81816086000F016F8CD
:1032AC0001BD80B5DFF8C405DFF8F8150860DFF85C
:1032BC000406DFF8F4150860DFF8FC050068401C14
:1032CC00DFF8F415086000F001F801BD70B5DFF807
:1032DC00D4050068006840690600DFF8C80500687E
:1032EC0000680069000338D5300336D5DFF8B40523
:1032FC0000684068C06BDFF8AC1509688968084243
:10330C0014D1DFF8A4050068006850F00100DFF864
:10331C00981509680860DFF890050068006830F0BF
:10332C000600DFF884150968086016E0DFF87805F8
:10333C000068006840084000DFF86C1509680860F8
:10334C00DFF860050068407B022806D10120DFF819
:10335C00541509680968C1F80401DFF848050068CC
:10336C0000680069800570D5B0056ED5DFF83405AE
:10337C000068006B401EDFF82C1509680863DFF845
:10338C0024050068006880690400DFF818050068EF
:10339C00006B002825D0DFF80C050068406B401C42
:1033AC00DFF8001509684863DFF8F8040068406B23
:1033BC0000780400DFF8EC040068007B012803D1DE
:1033CC0094FAA4F0000E04002000C0B2DFF8D4146C
:1033DC0009680968C861DFF8CC0400684069804757
:1033EC0033E04FF40070DFF8BC1409680968C8605A
:1033FC00DFF8B0040068006930F40010DFF8A414A2
:10340C00096808610421DFF89C040068C06A006840
:10341C0000F05FFBDFF88C0400682C3000F0EEFA53
:10342C000120DFF88014096809688860DFF87804E7
:10343C000068006850F00200DFF86C14096808603E
:10344C00DFF86004006840698047DFF858040068C2
:10345C0000680069C00738D5DFF8480400680068C8
:10346C004069C00731D5DFF83C040068006880690A
:10347C0000F0FF000400DFF82C040068007B01283A
:10348C0003D194FAA4F0000E04002000C0B2FF286F
:10349C0006D1DFF828040068401CDFF8201408600F
:1034AC00DFF800040068006A00680470DFF8F803B5
:1034BC000068006850F00400DFF8EC13096808603D
:1034CC00DFF8E003006880698047DFF8D803006804
:1034DC000068006900077DD530077BD5DFF8C40391
:1034EC000068407B002805D0DFF8B8030068407BFB
:1034FC0001283DD10020DFF8AC130968C884DFF83F
:10350C00A4030068006930F48000DFF898130968A0
:10351C000861DFF890030068006950F40000DFF8E0
:10352C00841309680861DFF898030068401CDFF811
:10353C0090130860DFF858030068407B002808D11E
:10354C00DFF8600300688068DFF858130968496881
:10355C00086340F20220DFF84C1309680968C1F8CF
:10356C0020010820DFF83C1309680968C86031E0C5
:10357C00DFF834030068006850F00400DFF828130B
:10358C0009680860DFF81C0300680068D0F81001B7
:10359C00401CC44909680968C1F81001C148006899
:1035AC000068D0F80001BF490968C969BD4A1268B2
:1035BC00928C1144884207D1BA480068C069B94955
:1035CC0009680968C1F800010120B6490968096851
:1035DC00C1F81401B348006800680069C0063ED504
:1035EC00F0063CD50421AF480068C06A006800F0C2
:1035FC0070FAAC4800682C3000F000FAA94800685A
:10360C00006930F40010A749096808614FF4007094
:10361C00A44909680968C1F820011020A14909686A
:10362C000968C860002005009E4800680068406971
:10363C00800503D4642D01D26D1CF5E79948006810
:10364C00407B00280BD192480068407B002806D1B3
:10365C00944800688068934909684968086370BD9C
:10366C0000000000F8B58A480068C06A002805D13F
:10367C0087480068C08C002800F0C7808448006828
:10368C00006910F4C00F40F0C08081480068407B96
:10369C00002806D17E48006880687D490968496821
:1036AC0048637B480068C08C002840D0784800688C
:1036BC00006950F480007649096808617448006814
:1036CC00858C002672480068C769320029003800D2
:1036DC0000F0AEFE6E480068C0696D490968096863
:1036EC00C1F800016A480068C0696949096809683D
:1036FC00C1F8080166480068C08C6549096809680A
:10370C00C1F8040162480068C08C61490968096805
:10371C00C1F80C0108205E4909680968886040F20C
:10372C0001105B4909680968C1F820016DE00221AC
:10373C0057480068C06A006800F0CBF9544800682C
:10374C00006950F40010524909680861504800683B
:10375C00407B03283BD14E480068C06A40684C4906
:10376C00096808634A480068C06A08304849096813
:10377C00486347480068406B007804004448006880
:10378C00007B012803D194FAA4F0000E0400082059
:10379C003F4909680968086040203D490968096883
:1037AC0008602000C0B23A4909680968C861012064
:1037BC00374909680968C8604FF4007034490968D2
:1037CC000968886032480068406980471DE03048CD
:1037DC000068C06A08302E4909680968C1F80801F8
:1037EC002B480068C06A4068294909680968C1F813
:1037FC000C01102026490968096888604FF4807014
:10380C00234909680968C1F820012148006890F82B
:10381C0028000D2804D015D30F2809D004D311E0AB
:10382C0010481B49086013E01048194908600FE064
:10383C000A481749086018480068400840001649B3
:10384C00086005E01F48FFF70FF8044810490860AE
:10385C00F1BD000000E100E080E200E068250020FE
:10386C00C0084000A0250020CE184500D825002017
:10387C00FF18410010040E40010008001028002021
:10388C00D827002000000940004009400080094072
:10389C001C2800206803002018280020C0270020C6
:1038AC00142800202028002024280020082800208C
:1038BC00282800200C2800202C280020302800204C
:1038CC0034280020800300200100FF209C4A13684C
:1038DC008B4204D09B4B9A4201D00C32F7E7994BA8
:1038EC009A420BD013791800C0B2042802D0C0B28F
:1038FC00052803D10023136000231371C0B2704755
:10390C002DE9F84F04000D001600AB465FF00009DE
:10391C008D480078102807D18C48006850F00100C1
:10392C008A490860002067E0BBF1000F63D086482D
:10393C000078401C84490870834800780E2806DB08
:10394C008248006850F002008049086005E07F481A
:10395C00006830F002007D4908607D4882469AF884
:10396C000000002802D11AF1900AF8E700208AF82A
:10397C0000001AF104000700BBF1810F04D3802072
:10398C008146BBF1800B02E0D9460020834671488A
:10399C0000683860C7F804900020C7F88800002041
:1039AC007968884206D2317807EB00021172761CD6
:1039BC00401CF5E72068002801D127600AE0206848
:1039CC008046D8F88800002802D0D8F88880F8E71C
:1039DC00C8F888705F48006800F089F85D48006896
:1039EC00401C5C4908605B48006800289CD10120A1
:1039FC005849086098E73868BDE8F28F0268002AD9
:103A0C0006D1524A126852F00402504B1A601FE061
:103A1C004F4A11000A1D03689A4204D04E4A914243
:103A2C0001D09031F6E74C4A914206D1474A1268D0
:103A3C0052F00802454B1A600AE00268D2F888205E
:103A4C00026001220A70404A1278521E3E4B1A70D4
:103A5C00704700203C49087001203E490860002056
:103A6C0080B2102808DA0121394A80B2902303FB76
:103A7C0000F3D154401CF3E7002080B2402818DA40
:103A8C0000212F4A80B20C2303FB00F3D1500021FC
:103A9C002B4A80B20C2303FB00F31A441171002152
:103AAC00274A80B20C2303FB00F31A449160401C9C
:103ABC00E3E72348294908600020244908600FF2F5
:103ACC00650027490860704780B525480068804725
:103ADC0001BD1B4A1368834204D01A4B9A4201D091
:103AEC000C32F7E7174B9A4200D0117170471B4903
:103AFC00096808600121194A12681171194909688D
:103B0C00164A12689160154909680C31134A116004
:103B1C00124909680B4A914202D109490F4A1160B6
:103B2C007047000010480068401E0F4908600E489E
:103B3C000068002803D14FF47A700B490860704775
:103B4C00B01C0020B01F00208C280020E027002093
:103B5C00B0130020E8270020B01C0020EC27002028
:103B6C00E4270020C027002064030020012110F06E
:103B7C001F029140DFF8FC2440B2430942F82310A5
:103B8C007047012110F01F029140DFF8EC2440B285
:103B9C00430942F8231070472DE9F04704002078C0
:103BAC00012806D046D3032823D012D3042830D0C2
:103BBC0040E0DFF8C804050050200600DFF8C00420
:103BCC000700002080465FF0FF3081461A208246B5
:103BDC0032E0DFF8B004050050200600DFF8A00446
:103BEC000700082080467FF0080081461A20824694
:103BFC0022E0DFF89404050050200600DFF88C0466
:103C0C000700002080465FF0FF308146302082465E
:103C1C0012E0DFF87C04050050200600DFF8740485
:103C2C0007005FF4002080467FF4002081460020CE
:103C3C00824601E0002049E02879C00701D5002028
:103C4C0044E0DFF854040068012195F922209140EA
:103C5C000843DFF844140860606868616088288451
:103C6C00A068A861E068E861686850F001006860CD
:103C7C0028680660286847602868C0F808802868AB
:103C8C00C0F80C902868C0F820A060682968C1F8BA
:103C9C0000016068401C2968C1F8100101202968E6
:103CAC00C1F8040101202968C1F8140140F2011087
:103CBC002968C1F8200195F9220040B2FFF761FF95
:103CCC0095F9220040B2FFF751FF2800BDE8F087BC
:103CDC0070B582B004000D008DF800506A460121C9
:103CEC0014F10800FFF70CFE0600002E06D0DFF8DA
:103CFC00B0030068002801D500F09BF8300076BDB9
:103D0C00F8B504000D0016003200290014F108006B
:103D1C00FFF7F6FD0700002F06D0DFF884030068DC
:103D2C00002801D500F085F83800F2BD0020DFF83E
:103D3C0074130860DFF87003DFF84013086000208C
:103D4C00DFF8381388600020DFF83013486100205A
:103D5C00DFF8281308840020DFF820138861002086
:103D6C00DFF8181348600820DFF8101381F82200E0
:103D7C00DFF83803DFF80C1308600020DFF80413B9
:103D8C0088600020DFF8FC1248610020DFF8F41294
:103D9C0008840020DFF8EC1288610020DFF8E412C0
:103DAC0048600D20DFF8DC1281F82200DFF80003F8
:103DBC00DFF8D41208600020DFF8CC1288600020F5
:103DCC00DFF8C41248610020DFF8BC120884002020
:103DDC00DFF8B41288610020DFF8AC1248600E20C6
:103DEC00DFF8A41281F82200DFF8C802DFF8A01275
:103DFC0008600020A64988600020A5494861002081
:103E0C00A34908840020A24988610020A049486089
:103E1C000F209F4981F822009848A74908600FF2AB
:103E2C007D109E490860704780B59C4800688047AB
:103E3C0001BD80B59B48006850F0010099490860AD
:103E4C008E489D49086097480078C0070BD5934869
:103E5C000068804799480068994908600121984892
:103E6C00FEF794FCEFE701BD80B5844895490860E6
:103E7C0095489649086096480068401C944908602B
:103E8C0000F010F801BD80B57E488E49086091485D
:103E9C008E49086090480068401C8F49086000F00B
:103EAC0001F801BD80B5874800680068006900070B
:103EBC0038D58448006800684069000732D58348CB
:103ECC000068006850F002008049096808607D486D
:103EDC0000680068D0F81001401C7A49096809682C
:103EEC00C1F81001774800680068D0F810017549D6
:103EFC0009684969734A1268128C1144884207D1C7
:103F0C007048006840696F4909680968C1F8100178
:103F1C006C480068C069804701206A4909680968D3
:103F2C00C1F814016748006800680069C00632D502
:103F3C006448006800684069C0062CD504216148BB
:103F4C00006880680068FFF7C4FD5E4800680830B0
:103F5C00FFF754FD5B480068406830F40010594985
:103F6C00096848604FF40070564909680968C1F83F
:103F7C0020011020534909680968C8605748007827
:103F8C00002805D055480078401E5449087002E0BE
:103F9C005348FEF769FC01BD0000000080B546489F
:103FAC0000688068002836D043480068406880026A
:103FBC0031D402214048006880680068FFF789FD11
:103FCC003D480068406850F400103B49096848605F
:103FDC003948006880680830374909680968C1F8B1
:103FEC0008013548006880684068334909680968E9
:103FFC00C1F80C01102030490968096888603748FD
:10400C000078401C354908704FF480702A490968C3
:10401C000968C1F820012848006890F82200082897
:10402C0006D00D2808D00E280AD00F280CD01DE081
:10403C001448214908601CE013481F49086018E027
:10404C0013481D49086014E00C481B4908601448CB
:10405C000068002809D521480078002805D11148AE
:10406C000068400840000F49086002E0034812490C
:10407C00086001BD00E100E080E200E03426002091
:10408C00C0084000582600207C260020CE18450091
:10409C00A0260020FF18410010040E4040280020EC
:1040AC00D82700204828002000060E4000000940B8
:1040BC0000400940008009404C280020C027002007
:1040CC0044280020502800203828002054280020A4
:1040DC00582800203C2800205C2800209028002034
:1040EC00485D080010B4DFF82823C0B20A2303FB94
:1040FC0000F31A44D279012A0DD1DFF81823DFF826
:10410C001033C0B20A2404FB00F423441B7A02EBE4
:10411C00830211000CE0DFF80023DFF8F432C0B2A8
:10412C000A2404FB00F423441B7A02EB83021100E3
:10413C00BA4AC0B252F820200A600022B44BC0B276
:10414C000A2404FB00F41A5510BC704710B4B04A92
:10415C00C0B20A2303FB00F31A44D279012A0BD113
:10416C00AD4AAB4BC0B20A2404FB00F423441B7AC7
:10417C0002EB830211000AE0A64AA54BC0B20A2446
:10418C0004FB00F423441B7A02EB83021100A34AC4
:10419C00C0B252F820200A6000229D4BC0B20A2403
:1041AC0004FB00F41A5510BC70479D49984AC0B2E4
:1041BC000A2303FB00F31A44127A01EB82010A680A
:1041CC00964BC0B253F820305A400A6070472DE924
:1041DC00F04182B04FF47A654FF4FA76A81B1421A3
:1041EC00B0FBF1F714200400E4B2002C30D05FF0E7
:1041FC0014081FFA88F8B8F1000F0DD08948006830
:10420C00009001216846FEF7C1FA0028F9D000F0B1
:10421C003BF8B8F10108ECE7E4B2142C05D1C82145
:10422C006846FEF7B3FA0028F9D00020C0B20B287C
:10423C000ADAE4B2611E764AC0B20A2303FB00F329
:10424C001A445180401CF1E7ED1BBE19641ECBE7EC
:10425C0000F01AF8C8216846FEF798FA0028F9D041
:10426C000820FFF73FFF0920FFF73CFF0A20FFF76C
:10427C0039FF6D48006850F001006B4908606B48CD
:10428C00FEF7F2FABDE8F38110B50024E4B20B2C72
:10429C0080F2BC805E48E4B20A2101FB04F1405C70
:1042AC00012840F07F805A48E4B20A2101FB04F156
:1042BC000844B0F90200002804D12000C0B2FFF776
:1042CC0045FF67E05248E4B20A2101FB04F10844BF
:1042DC00B0F90200142804D12000C0B2FFF702FF8D
:1042EC0058E04B48E4B20A2101FB04F108448088F1
:1042FC00401E4749E4B20A2202FB04F211448880B2
:10430C004348E4B20A2101FB04F1084480880028E8
:10431C0040D13F48E4B20A2101FB04F10844807902
:10432C0001281DD12000C0B2FFF710FF3848E4B2BD
:10433C000A2101FB04F10844B0F90200D0F1140089
:10434C003349E4B20A2202FB04F2114488800020B3
:10435C002F49E4B20A2202FB04F21144887119E0DD
:10436C002000C0B2FFF7BEFE2948E4B20A2101FBCF
:10437C0004F1084440882649E4B20A2202FB04F204
:10438C001144888001202249E4B20A2202FB04F283
:10439C001144887101201E49E4B20A2202FB04F286
:1043AC00885431E01A48E4B20A2101FB04F1405C64
:1043BC00022829D11648E4B20A2101FB04F1084471
:1043CC008088401E1249E4B20A2202FB04F2114416
:1043DC0088800F48E4B20A2101FB04F1084480886C
:1043EC00002811D12000C0B2FFF7DFFE0848E4B26C
:1043FC000A2101FB04F1084440880549E4B20A2271
:10440C0002FB04F211448880641C3FE710BD0000DD
:10441C00DC020020300C0E40340C0E40B0020020A8
:10442C00380C0E40C0270020DC2700204C03002055
:10443C0062F30F2262F31F42401810F0030308D0FE
:10444C00C91A1FD3DB0748BF00F8012D28BF20F87D
:10445C00022D130030B414461546103928BF20E93C
:10446C003C00FAD8490728BF20E90C0048BF40F8A7
:10447C00042D890028BF20F8022D48BF00F8012D1B
:10448C0030BC7047C91818BF00F8012DCB0728BFE6
:10449C0000F8012D7047FEE7012110F01F0291403A
:1044AC00DFF8902740B2430942F8231070470121EE
:1044BC0010F01F029140DFF8802740B2430942F808
:1044CC0023107047F8B504000D0016008DF800504D
:1044DC00DFF868070078102801D100205CE06A46FC
:1044EC000121DFF85C070068001DFFF709FA0700DF
:1044FC00002F50D00020DFF84C17DFF84C27127833
:10450C00120188540120DFF83C17DFF83C271278A1
:10451C00120111444860DFF82C07DFF82C170978DA
:10452C00090108440472DFF81C07DFF81C1709782E
:10453C000901084486720020DFF80817DFF8082705
:10454C0012781201114448720020DFF8F816DFF8D7
:10455C00F826127812011144C860DFF8EC060078D6
:10456C00401CDFF8E4160870DFF8D0060078401C19
:10457C00DFF8C8160870DFF8D0060078102803D1D1
:10458C000020DFF8C4160870DFF8C00600680028A9
:10459C0001D500F041F93800F2BD2DE9F0410400DD
:1045AC000D0016001F00DFF894060078102801D1CA
:1045BC0000205DE032002900DFF884060068001D51
:1045CC00FFF79EF98046B8F1000F50D00020DFF8BD
:1045DC007416DFF874261278120188540120DFF863
:1045EC006416DFF864261278120111444860DFF873
:1045FC005406DFF854160978090108440472DFF8F0
:10460C004406DFF844160978090108448772002033
:10461C00DFF83016DFF83026127812011144487298
:10462C000020DFF82016DFF8202612781201114442
:10463C00C860DFF814060078401CDFF80C16087010
:10464C00DFF8F8050078401CDFF8F0150870DFF88B
:10465C00F8050078102803D10020DFF8EC1508705D
:10466C00DFF8E8050068002801D500F0D5F84046D1
:10467C00BDE8F08110B51224DFF8D40500680121E3
:10468C00A1400843DFF8C81508600020DFF8C41506
:10469C000860DFF8C405DFF8A81508600020DFF813
:1046AC00A81508700020DFF8B41508700020DFF89A
:1046BC008C150870DFF8A805DFF89C150860002041
:1046CC00DFF8941548600020DFF88C158860002016
:1046DC00DFF88415C860DFF86805006800680068BA
:1046EC0050F08000DFF85815096809680860DFF899
:1046FC0074050068DFF8701508600521DFF868059F
:10470C00FEF744F80028F8D0DFF86005DFF8301524
:10471C000968096808612420DFF82415096809680C
:10472C0008600020DFF818150968096848604FF424
:10473C00A170DFF80C150968096848624FF63560FE
:10474C00DFF8FC14096809688862200040B2FFF7A2
:10475C00AEFE200040B2FFF79FFE0020DFF81015E0
:10476C0008600020DFF80C1508600FF2A510DFF8C8
:10477C000815086010BD80B5DFF8FC0400688047A0
:10478C0001BD0120C0B200281DD0DFF8E414096877
:10479C00002918D0DFF8DC1409680978DFF8A024A8
:1047AC00126812685163DFF8CC140968491CDFF8F1
:1047BC00C4241160DFF8B8140968491EDFF8B0246E
:1047CC001160401EDEE7DFF8A814096800291CD12F
:1047DC000421DFF86C24126812689162DFF864140B
:1047EC00DFF87824127812011144897A002912D149
:1047FC00DFF84C1409680968096851F00201DFF808
:10480C00402412681268116005E00421DFF830249E
:10481C00126812685162704780B5DFF8380400687E
:10482C0050F00100DFF82C140860DFF83804006841
:10483C00DFF834140860DFF81C040078C00709D5D1
:10484C00DFF83404006880470121DFF81C04FDF711
:10485C009DFFF0E701BD10B5DFF8200400680400EF
:10486C00DFF81C0400680440E00508D5DFF8E40319
:10487C00006850F08070DFF8DC13086046E0A00799
:10488C0031D5DFF8BC030068007B00072BD5DFF8BF
:10489C00B00300680068006BDFF8A413096889682E
:1048AC000870DFF89C0300688068401CDFF89013E8
:1048BC0009688860DFF8B8030068401EDFF8B013A1
:1048CC000860DFF8AC03006801281FD1DFF8700323
:1048DC0000680068006850F00200DFF86413096893
:1048EC000968086012E0600708D5DFF85403006817
:1048FC00007B800702D5FFF744FF07E0DFF8540385
:10490C00006850F00070DFF84C13086010BD000018
:10491C0080B5DFF834030078DFF84013097888425B
:10492C0000F096800020DFF81813096809684860C9
:10493C002420DFF80C13096809680860DFF8040309
:10494C00DFF8181309780901405C002832D1BC4803
:10495C00006800684068BB49DFF800231278120138
:10496C001144097A50EA0140B54909680968486060
:10497C00B348006840684068BD490860B0480068AA
:10498C0040680830BB490860FFF7FBFE0221AC48C9
:10499C00006840680068FFF79CF8A9480068C06888
:1049AC0050F00600A6490968C8600FF2A900B24988
:1049BC00086044E0A348A94909780901405C012832
:1049CC003DD19F480068006840689D4909680968A6
:1049DC0048609C48A1490978090108444068A449E9
:1049EC00086098489D49097809010844C0689449B1
:1049FC00096888609E48006801280AD190480068C0
:104A0C000068006850F003008D4909680968086067
:104A1C0009E08B4800680068006850F00100884984
:104A2C0009680968086086480068C06850F008008A
:104A3C0083490968C8600FF2F1008F490860854806
:104A4C00006810F07F4F03D00FF255108A490860B0
:104A5C0001BD000080B57B488049097809010844F4
:104A6C00807A002818D182480068002826D1744822
:104A7C0000680068006A400720D57148006800682B
:104A8C00006AC0071AD56E480068C06830F006008E
:104A9C006B490968C86011E07548006800280DD1A1
:104AAC00674800680068006A400707D564480068DA
:104ABC00C06830F0020062490968C860604800684C
:104ACC00007B800725D404215D480068406800689D
:104ADC00FEF7FFFF5A480068001DFEF78FFF5D4888
:104AEC000068400840005B490860664862490860FD
:104AFC005A480078401C5949087050480078401EAC
:104B0C004E49087055480078102802D100205349AE
:104B1C0008705048006810F07F4F03D00FF28100EE
:104B2C005549086001BD00005148006800282DD18E
:104B3C00434800680068006A800727D54048006831
:104B4C000068006AC00721D53D480068C06830F095
:104B5C0008003B490968C8603E48006840084000AE
:104B6C003C4908604748444908603C480078401C70
:104B7C003A49087031480078401E3049087037486F
:104B8C000078102802D100203449087031480068A0
:104B9C0010F07F4F03D00FF20900374908607047BF
:104BAC0080B52C480068C0013AD5264826490978BA
:104BBC0009010844407A401C2249234A1278120108
:104BCC00114448721F482049097809010844407A69
:104BDC00032821D121480078401C2049087017482F
:104BEC000078401E154908701C480078102802D126
:104BFC0000201A49087012480068007B80070BD50A
:104C0C0006210F48006840680068FEF762FF0C48F8
:104C1C000068001DFEF7F2FE002009490968C86013
:104C2C000C48006820F07F400A490860154812497A
:104C3C00086001BD00E100E080E200E08F28002068
:104C4C00FC270020882200208D280020D827002057
:104C5C0010040E40F82700201C2700208E2800206E
:104C6C0000400840C0270020F42700201D1D020032
:104C7C000028002004280020F02700202C400840A9
:104C8C00204008401D490800DFF86C02DFF86C1268
:104C9C0008600420DFF8681208604FF480709949AE
:104CAC00086099489949086099480068C007FBD585
:104CBC009648006897490843944908609648974974
:104CCC000860934800688007FBD54FF40070944946
:104CDC00086042F21100934908608D480068000793
:104CEC00FBD542F212008F49086089480068000722
:104CFC00FBD58D48006850F444108B4908608448FB
:104D0C0000684006FBD570470020884908600020E9
:104D1C008749086041F26F70864908600020864917
:104D2C000860032085490860704780B57F4800689B
:104D3C0083490968401A012817D082480068401C32
:104D4C00804908608048006850F020007E49086067
:104D5C007E480078800708D57D48FDF785FD7948A9
:104D6C000068FDF7A1FDFDF791FD704800687449DE
:104D7C0008607848006830F48010764908607648FE
:104D8C00006830F00400744908606F48006850F007
:104D9C0080406D4908606C480068400001D530BF08
:104DAC00F9E701BD6D486E4908606E486E490860B0
:104DBC00704780B56D486E4908606E486E49086052
:104DCC006E486F4908606F486F49086000206F4952
:104DDC00086000206E4908606E486F4908605FF0FB
:104DEC0040506E4908606E486E4908606E486F49C5
:104DFC0008607FF001006E49086001206D49086071
:104E0C005FF0F6406C49086000206C490860002097
:104E1C006B49086000206B4908606B486B4908605F
:104E2C0000206B4908606B486B4908606B486C4903
:104E3C0008606C486C4908606C486D49086000203B
:104E4C006C49086000206C4908606C486C4908602B
:104E5C0000206C49086000206B4908607FF07E40A0
:104E6C006A4908606A486B4908604FF4E0706A4907
:104E7C0008606A486A49086000206A490860002096
:104E8C0069490860002069490860694869490860F7
:104E9C0000206949086000F001F801BD5FF00110C5
:104EAC00664908600020664908600320654908606F
:104EBC0041F270706449086041F270706349086097
:104ECC0042F6E0606249086042F6E06061490860C1
:104EDC0003206149086040F2DC506049086040F2F0
:104EEC00DC505F49086040F6B8305E49086040F617
:104EFC00B8305D490860704773EDFC2710040E4014
:104F0C0040040E4000040E4019F0370020040E40FF
:104F1C0068040E4000003701013F072028040E40B2
:104F2C0000080E4030040E401C040E40C027002028
:104F3C00C427002014E000E018E000E010E000E0DE
:104F4C00CC270020C8270020D8270020A427002029
:104F5C009002002070040E4010ED00E00005FF1FD1
:104F6C0054120E40010000A550120E40070003849D
:104F7C00000C0E40F8FFFC7B040C0E40F9D755BF1B
:104F8C00100C0E400628AA40140C0E40200C0E40AB
:104F9C00240C0E4000000188300C0E40340C0E40E6
:104FAC0000060004500C0E40FFF9FFFB540C0E40A1
:104FBC00600C0E40640C0E40700C0E40800C0E40C9
:104FCC00840C0E408C0C0E40000001B4A00C0E4062
:104FDC00A40C0E4057FFBF01000E0E4058004000BD
:104FEC00040E0E40E0FFBF01100E0E401F004000EB
:104FFC00140E0E40200E0E40240E0E4000FEBF017B
:10500C00300E0E40340E0E40500E0E40540E0E401C
:10501C005FFEFF01600E0E40640E0E401800400053
:10502C00700E0E40800E0E40840E0E408C0E0E4004
:10503C00E0FF1F00A00E0E40A40E0E4000C0084062
:10504C0020C0084000C208400CC2084010C20840F2
:10505C0004C2084008C2084020C208402CC20840C4
:10506C0030C2084024C2084028C20840012110F078
:10507C001F029140874A40B2430942F823107047FF
:10508C00012110F01F029140834A40B2430942F8BB
:10509C002310704738B5002400250020C0B2042826
:1050AC000DDA0021804AC0B2115400217B4AC0B2F3
:1050BC00115400217D4AC0B21154401CEEE700206F
:1050CC00C0B204281ADA7A49C0B201EB400149781F
:1050DC00002905D17749C0B251F820100C430BE0E0
:1050EC007349C0B201EB40014978802904D1714960
:1050FC00C0B251F820100D43401CE1E76E4804602B
:10510C006E4805606E48006804006E480068050033
:10511C000A20FFF7B5FF0B20FFF7B2FF0A20FFF7BD
:10512C00A5FF0B20FFF7A2FF0FF24D0066490860A8
:10513C006648006850F00200644908606448FDF756
:10514C0093FB31BD80B560480068804701BD02000B
:10515C00D2B2042A0DDA5648D2B200EB42004078A3
:10516C000B00DBB2984204D15248D2B250F8220064
:10517C0000E00020704700000020C0B204280ADACA
:10518C004949C0B2095C002903D00FF20D014E4A07
:10519C001160401CF1E7704770B54E484A490860F1
:1051AC000026F6B2042E74DA4B484149F6B201EBF4
:1051BC004601497800EB810004003F483C49F6B2B7
:1051CC0001EB4601497800EB810005003648F6B248
:1051DC00805D00285BD041483B490860192140485C
:1051EC00F6B200EB8600FDF7D1FA00284FD030481C
:1051FC00F6B210F81600002811D12068C0432D49D2
:10520C00F6B251F82610084204D001202749F6B214
:10521C00885514E000202549F6B288550FE0206827
:10522C002449F6B251F82610084204D001201F4937
:10523C00F6B2885503E000201C49F6B288551B488D
:10524C00F6B2805D1549F6B2895D884214D01748D4
:10525C00F6B2805D1149F6B288551048F6B2805D01
:10526C00012809D101200E49F6B288551D48006865
:10527C000C49F6B241F8260000200B49F6B28855CD
:10528C0028680C49F6B251F8261008432860761CA1
:10529C0087E770BD00E100E080E200E09827002085
:1052AC00A02700200C270020902700209C270020FE
:1052BC0098010020F85E0800400C0E40400E0E4095
:1052CC004C0C0E404C0E0E4094270020DC27002086
:1052DC00A0010020855108003C0C0E40A55108008F
:1052EC00FC260020C0270020012110F01F02914055
:1052FC00604A40B2430942F823107047012110F074
:10530C001F0291405C4A40B2430942F82310704797
:10531C0010B588B0684659492022FDF779FA00206B
:10532C00C0B2082809DA6946C0B251F82010544AB4
:10533C00C0B242F82010401CF2E70024E4B21D2C4D
:10534C0009DA200040B2FFF7CFFF200040B2FFF790
:10535C00D5FF641CF2E708B010BD80B50020FEF745
:10536C00F5FE0320FEF7F2FE0120FEF7EFFE06200D
:10537C00FEF7ECFE0220FEF7E9FE0420FEF7E6FE47
:10538C000520FEF7E3FE0720FEF7ACFEFEE73D48E6
:10539C000068401C3B4908603B48006830F0804086
:1053AC003949086039480088401E38490880374818
:1053BC000088002808D14FF47A70344908803448AA
:1053CC000068401C324908607047F8B531480068E5
:1053DC00040014F400300500002D1CD00027FFB28F
:1053EC00042F18DA00213800C0B2FFF7B0FE060017
:1053FC0035420ED028480068304327490860012008
:10540C002649FFB2C8551F4800682549FFB241F82C
:10541C0027007F1CE3E70A20FFF770FFF1BDF8B50A
:10542C0020480068040014F007000500002D1CD073
:10543C000027FFB2042F18DA80213800C0B2FFF722
:10544C0086FE060035420ED01748006830431649D8
:10545C00086001201149FFB2C8550A48006810497C
:10546C00FFB241F827007F1CE3E70B20FFF746FF54
:10547C00F1BD000080E100E080E200E0285D080062
:10548C0000E400E0C0270020D8270020A80300205B
:10549C00C42700204C0C0E40440C0E4090270020DA
:1054AC00FC2600204C0E0E40440E0E40012110F044
:1054BC001F029140404A40B2430942F82310704702
:1054CC00012110F01F0291403C4A40B2430942F8BE
:1054DC002310704700B587B068463C491922FDF788
:1054EC0087F93B483B490860FF203B49086040F284
:1054FC0001103A4908603A483A4908603A483B4931
:10550C0008600020C0B2082807D20FF24D012D4AC6
:10551C00C0B242F82010401CF4E701202A49087060
:10552C001A20FFF7CDFF1A20FFF7C0FF6846FDF7E2
:10553C009BF92F48006850F040002D4908600FF28D
:10554C00C1002C49086007B000BD80B5294800682F
:10555C00804701BD00000000704738B50025EDB252
:10556C00032D21D2244800681549EDB2495DC8408D
:10557C00C00717D521481249EDB2495D50F82100FA
:10558C000400200080B20F490D4AEDB2525D51F873
:10559C002210884701200A49EDB2495788400E492C
:1055AC00086001E06D1CDAE70120074908705FF024
:1055BC0080600249086031BD00E100E080E200E05B
:1055CC0000000020C426002084280020685D08000C
:1055DC000017040F04800A4014800A4064800A40BB
:1055EC000100040068800A40FFFF0F0028800A4079
:1055FC00DC270020382700201C800A4030800A401D
:10560C007047FEE7012110F01F0291402B4A40B277
:10561C00430942F823107047012110F01F029140FA
:10562C00274A40B2430942F82310704700B587B0AF
:10563C00684625491522FDF7DBF824482449086003
:10564C002448254908602520244908601020244955
:10565C000860EF2023490860022023490860234892
:10566C00184908601720FFF7D7FF1720FFF7CAFF6C
:10567C000FF28D001E4908606846FDF7F5F81D48CD
:10568C00006850F020001B49086007B000BD80B5D1
:10569C0017480068804701BD80B517480068C006F0
:1056AC0007D516480068401C144908600548006876
:1056BC0080475FF400000249086001BD00E100E092
:1056CC0080E200E0682800205C5E08000008100002
:1056DC000401084003C40C00440008405C0008406E
:1056EC00640008406800084040000840635F080000
:1056FC0064280020DC270020600008406C28002073
:10570C007047FEE780B53348006850F000403149DF
:10571C000860FFF747FBFFF74CFBFFF7B5FAFFF705
:10572C00F7FDFFF7F1FAFEF794F9FEF7FFFAFDF734
:10573C004EF9FFF7AFFCFFF779FFFDF7FDFCFEF725
:10574C0099FFFFF7C7FE00F04FF8FEF740FDFCF79E
:10575C00B5F900F0B7F800F0CBF800F0F1F800F074
:10576C0009F900F015F9FDF7F7F81A48006820F070
:10577C00004018490860184818490860FEF784FD75
:10578C00FFF7E0FCFEF750FBFFF781FFFDF74AFD4A
:10579C00FEF7F1FFFFF7D9FEFEF796F9FDF775F965
:1057AC0000F07BF8FCF7ABFA00F095F800F0BAF8D3
:1057BC0000F0D4F800F0E3F800F0EFF85FF00040F0
:1057CC0007490860FFF7B1FA5FF00040054908602F
:1057DC00D1E700BFD8270020010000A550120E40D1
:1057EC00300C0E40340C0E4000B589B068462D4983
:1057FC00D1E90023C0E9002302A82B491622FCF7AB
:10580C00F7FF0FF2BD00294908604FF400702849DA
:10581C000860284800682849086028212648FCF7B9
:10582C00B5FF0028F9D0012200213C20FEF74AFEEA
:10583C0001236A4606213C20FEF7AFFE1D48006896
:10584C001D490860C8211C48FCF7A0FF0028F9D0AE
:10585C0000220C213C20FEF735FE0820FEF742FC0E
:10586C000920FEF73FFC0A20FEF73CFC01224021F8
:10587C003C20FEF727FE002302AA14213C20FEF751
:10588C008CFE0C4800680C4908600C48006850F00D
:10589C0008000A49086009B000BD80B503480068DB
:1058AC00804701BD385F08002C5E0800D02700201F
:1058BC00300E0E40C0270020D4270020DC2700200B
:1058CC007047FEE780B50948FCF7CEFF0FF21500D4
:1058DC000549086001BD80B503480068804701BDDB
:1058EC0000000000704700008C270020E85E0800D4
:1058FC0000B587B06846DFF838101722FCF778FF40
:10590C00DFF83000006850F08000DFF828100860E5
:10591C000FF22900DFF8201008606846FCF7A4FF9E
:10592C0007B000BD80B5DFF810000068804701BDEE
:10593C00445E0800DC270020602800207047FEE74A
:10594C007CB50FF22D000849086000246D4601AEAD
:10595C00220029003000FCF74BFF73BD0348008880
:10596C00401C0249088070477028002082280020C3
:10597C007047FEE70FF2150003490860704780B5C9
:10598C0001480068804701BD742800207047FEE77D
:10599C000FF2150003490860704780B50148006894
:1059AC00804701BD782800207047F0B40168446836
:1059BC008368014401EB5402E40748BF4B44914215
:1059CC0002D1F0BC0C30704711F8015B15F00306E6
:1059DC0004BF11F8014BE61C2C090F2C07D111F850
:1059EC00014B0F3403E011F8017B03F8017B761EA9
:1059FC00F9D1002CE3D0AD0811F8016B05F00305CB
:105A0C00032D08BF11F8015B06EB05256D42A41CA4
:105A1C001D44D4D015F8016B03F8016B641EF9D149
:105A2C00CDE7FEE74C454400000000000000425565
:105A3C0054544F4E000000004445425547000000AE
:105A4C0000004C434400000000000000414E540094
:105A5C0000000000000054494D45520000000000B9
:105A6C0041444300000000000000534400000000CB
:105A7C00000000000A0D496E697469616C697A61F5
:105A8C0074696F6E20636F6D706C6574652E205435
:105A9C0079706520656E2B63303020666F722064E0
:105AAC0065627567206D656E752E20204661696C88
:105ABC006564207461736B733A0A0D0019E050F839
:105ACC00041BCB0744BFA9F101035918121F002373
